S00E00004E6F64655F312E7372656300
S11300000C94BC010C9449030C94D9010C94F40194
S11300100C94D9010C94D9010C94D9010C94D901F4
S11300200C94D9010C94D9010C94D9010C94D901E4
S11300300C94D9010C94D9010C94D9010C94D901D4
S11300400C94D9010C94D9010C94D9010C94D901C4
S11300500C94D9010C94D9010C94D9010C94D901B4
S11300600C94D9010C94D9010C94D9010C94D901A4
S1130070000000000000000000065F5F06000000B2
S11300800007070007070000147F7F147F7F140018
S1130090242E6B6B3A120000466630180C66620020
S11300A0307A4F5D377A48000407030000000000EF
S11300B0001C3E63410000000041633E1C00000040
S11300C0082A3E1C1C3E2A0808083E3E0808000078
S11300D000A0E0600000000008080808080800000C
S11300E000006060000000006030180C060301008E
S11300F03E7F594D7F3E000042427F7F40400000DA
S1130100627359496F660000226349497F360000D3
S1130110181C16137F7F1000276745457D390000A2
S11301203C7E4B4979300000036371190F070000CE
S1130130367F49497F360000064F49693F1E00005B
S113014000006C6C0000000000A0EC6C00000000DB
S1130150081C366341000000141414141414000025
S1130160004163361C080000020351590F060000C9
S11301703E7F415D5D1F1E007C7E13137E7C00006C
S1130180417F7F49497F36001C3E63414163220021
S1130190417F7F41637F1C00417F7F495D41630054
S11301A0417F7F491D0103001C3E6341517372006E
S11301B07F7F08087F7F000000417F7F41000000AF
S11301C0307040417F3F0100417F7F081C7763000E
S11301D0417F7F41406070007F7F060C067F7F0077
S11301E07F7F060C187F7F001C3E6341633E1C002A
S11301F0417F7F49090F06001E3F21717F5E000089
S1130200417F7F19396F460026674D597B320000C4
S113021003417F7F410300007F7F40407F7F0000D8
S11302201F3F60603F1F00007F7F3018307F7F00DA
S113023063771C081C776300074F78784F0700002A
S11302406773594D47637100007F7F41410000008F
S11302500103060C183060000041417F7F0000005C
S1130260080C0603060C0800808080808080808053
S11302700000030704000000207454543C7840003C
S1130280413F7F44447C3800387C44446C2800005F
S1130290307848493F7F4000387C54545C18000053
S11302A0487E7F490302000098BCA4A4F87C0400A3
S11302B0417F7F08047C780000447D7D400000007D
S11302C040C484FD7D000000417F7F10386C4400F1
S11302D000417F7F400000007C7C0C180C7C78007F
S11302E07C7C04047C780000387C44447C38000026
S11302F084FCF8A4243C1800183C24A4F8FC8400D2
S1130300447C78441C180000485C54547424000055
S113031000043E7F442400003C7C40403C7C400080
S11303201C3C60603C1C00003C7C6030607C3C00F9
S1130330446C3810386C44009CBCA0A0FC7C0000C9
S11303404C64745C4C64000008083E774141000032
S113035000000077770000004141773E0808000064
S11303600203010302030100003838387C3810000E
S1130370FFFF7E7E3C3C181811241FBECFEFD4E053
S1130380DEBFCDBF12E0A0E0B1E0EAE0F9E102C0D7
S113039005900D92A838B107D9F722E0A8E8B2E099
S11303A001C01D92AC3AB207E1F70E943A050C94E1
S11303B0830C0C940000F8948BB78F7D8BBF86B7A9
S11303C08E7F86BF8AB780628ABF8BB780628BBFFD
S11303D0089580930014809188028823E1F3109299
S11303E088028091001408951F920F920FB60F9205
S11303F011248F9381E0809388028F910F900FBE18
S11304000F901F9018950E949C050E94E5038EE0B2
S11304100E949803807E803831F08AE091E00E9447
S1130420620981E0089543E063E08BE20E94CD031A
S113043040E460EE8FE00E94CD0380E00895EF92E7
S1130440FF920F931F93CF93DF937C01FC01808174
S1130450918196958795969587959695879561E36D
S11304600E94A703F701808162E38295880F807E52
S11304700E94A70365E3F70182810E94A703F701A5
S11304808281882399F087010D5F1F4FC0E0D0E07F
S11304906C2F6A5CF80181918F010E94A703219659
S11304A0F701228130E0C217D30794F380E00E9461
S11304B0B903DF91CF911F910F91FF90EF900895B1
S11304C09F92AF92BF92CF92DF92EF92FF920F93DF
S11304D01F93CF93DF93CDB7DEB72B970FB6F89466
S11304E0DEBF0FBECDBF7C018CE20E94980381FF6A
S11304F034C081E70E949803C82E82E70E949803C3
S1130500D12CCC0CDD1CCC0CDD1CCC0CDD1C829560
S113051086958770C80ED11C85E70E949803982E93
S11305208823A9F08E010C5F1F4F0F2EF6E7AF2E24
S1130530F02DA80E0F2EF6E7BF2EF02D8B2D0E9466
S11305409803F80181938F01B394BA10F7CF40E078
S113055062E08CE20E94CD0333C081E60E949803DE
S1130560C82E82E60E949803D12CCC0CDD1CCC0C46
S1130570DD1CCC0CDD1C829586958770C80ED11CC1
S113058085E60E949803982E8823A9F08E010C5FBB
S11305901F4F0F2EF6E6AF2EF02DA80E0F2EF6E607
S11305A0BF2EF02D8B2D0E949803F80181938F01AB
S11305B0B394BA10F7CF40E061E08CE20E94CD031F
S11305C0DA82C9829B828BE0FE013196D7010190C9
S11305D00D928A95E1F7C7012B960FB6F894DEBF0A
S11305E00FBECDBFDF91CF911F910F91FF90EF9080
S11305F0DF90CF90BF90AF909F9008950F931F937B
S1130600CF93DF93CDB7DEB70DB71EB770918B02D2
S1130610472F50E0CA0101962DB73EB7281B390B6E
S11306200FB6F8943EBF0FBE2DBF2F5F3F4F772309
S113063051F08CE892E0D901FC0161916D936E2F29
S1130640681B6717D0F3F901E40FF51F10823F937D
S11306502F931F927F93E9E8F2E081818F93808149
S11306608F9385E391E09F938F930E944E098DB7FA
S11306709EB708960FB6F8949EBF0FBE8DBF0FB6F7
S1130680F8941EBF0FBE0DBFDF91CF911F910F9144
S113069008951F920F920FB60F9211242F933F9338
S11306A04F935F936F937F938F939F93AF93BF9376
S11306B0EF93FF93CF93DF93CDB7DEB72B97DEBFD6
S11306C0CDBFCE0101960E9460028BE0FE013196FF
S11306D0A9E8B2E001900D928A95E1F72B960FB646
S11306E0F894DEBF0FBECDBFDF91CF91FF91EF91A4
S11306F0BF91AF919F918F917F916F915F914F9136
S11307003F912F910F900FBE0F901F90189584E08A
S11307100E94E90190E0909397028093960285E00D
S11307200E94E90190E090939502809394020895C9
S1130730CF93C82FC49883E00E94A3058C2F0E94F6
S1130740A30580E00E94A305C49ACF910895CF9396
S1130750DF93C82FD62FC49882E00E94A3058D2F63
S11307600E94A3058C2F0E94A305C49ADF91CF9108
S11307700895C498813041F018F0823049F00BC0DC
S113078081E80E94A30507C082E80E94A30503C074
S113079084E80E94A305C49A08951F93CF93DF931E
S11307A0182FD62FC42FC49885E00E94A305812F4B
S11307B00E94A3058D2F0E94A3058C2F0E94A305E0
S11307C0C49ADF91CF911F910895C49880EC0E9440
S11307D0A305C49A0895CF92DF92EF92FF920F93EC
S11307E01F93CF93DF938C016B017A018AE090E031
S11307F00E94AB06EC01D982C8821B830A831D8246
S11308001C821F821E82F986E886F8016481758144
S11308106F5F7F4F660F771F868197810E94300834
S1130820F8019783868324813581A901440F551FDC
S1130830FC01E40FF51FD183C0832F5F3F4FF80104
S113084035832483CE01DF91CF911F910F91FF90C7
S1130850EF90DF90CF9008950F931F93CF93DF9382
S11308608AE090E00E94AB06EC0190939D02809395
S11308709C0282E691E0998388831D821C821986FA
S1130880188648EA55E06EE971E0CE010E94EB0358
S113089040E050E06CE671E0CE010E94EB038C0175
S11308A040E050E068E771E00E94EB0340E050E074
S11308B06EE771E0C8010E94EB0340E050E065E898
S11308C071E0C8010E94EB03D8011696ED91FC91EA
S11308D0179740E050E060E971E0808191810E94C7
S11308E0EB03D0939902C093980210929B0210924A
S11308F09A02CE01DF91CF911F910F91089520911B
S11309009F0250E8259F9001112440919E0258E0D7
S1130910859FC0011124FC01E059F04080E0982F2C
S1130920940FD901A90FB11DB85E94919C938F5F68
S113093031968830A1F7485F40939E020895109243
S11309409F0210929E02E0E0F0E180EB808310822F
S113095080E18083089580939F028055E0E0F0E178
S11309608083108280E1808308950E94AB0480E834
S113097090E0E0E0F2E1108201970097E1F708953A
S1130980CF930E949F04C0E08C2F0E94B504CF5FD8
S1130990C830D1F70E949F04CF910895E0E0F0E1C0
S11309A08EEA808381EA80838AED808382E180837A
S11309B088EC808388EA80838FE3808385ED80835D
S11309C080E8808381E8808380E5808389ED80836B
S11309D081E2808380E2808382E080838BED808368
S11309E080E380838DEA8083108284EA808386EAB0
S11309F080838FEA8083108280E180830E94C00418
S1130A000E949F04089580939E02982F9F70E0E0B7
S1130A10F0E1908382958F70805F80830895CF93F7
S1130A20C62F0E94AB048C2F0E940305CF9108951A
S1130A30EF92FF920F931F93CF93DF938C017C016E
S1130A40C0E0D0E006C0F70181917F010E947F04DD
S1130A502196F80101900020E9F73197E01BF10B92
S1130A60CE17DF0780F3DF91CF911F910F91FF9095
S1130A70EF900895CF93DF93CDB7DEB766970FB6A7
S1130A80F894DEBF0FBECDBFF89480E895E20E94D3
S1130A903D060E9459060E94DB010E9403027894DD
S1130AA00E9487030E94CE040E942C040E949C058D
S1130AB02FEF8FE791E0215080409040E1F700C094
S1130AC000C086E090E09A83898384E08B8389E781
S1130AD08C838FE68D839CE69E838F8382E090E0F7
S1130AE09D878C8785E08E8783E78F878EE6888B4A
S1130AF085E6898B8BE68A8B82E38B8BCE0101960C
S1130B000E941F0280E090EF0197F1F70E94FE021D
S1130B109FEF2FEF8EE0915020408040E1F700C01E
S1130B200000CE010C960E941F0280E090EF019716
S1130B30F1F70E94FE02FFCF87B3806B87BB81E190
S1130B408DB96E9A08958FB9779BFECF8FB10895B2
S1130B50CF92DF92EF92FF920F931F93CF93DF9385
S1130B6063E083E00E940F0585E991E00E94180587
S1130B7083EA91E00E9462090E9420086C010E94AD
S1130B802508C0E0D0E000E010E00F2EF9EBEF2ED6
S1130B90F1E0FF2EF02D0E942008FE01F85E808314
S1130BA020812817A9F099279F938F931F922F9341
S1130BB0DF93CF93FF92EF920E944E090F5F1F4F76
S1130BC08DB79EB708960FB6F8949EBF0FBE8DBF23
S1130BD02196C11598E0D907F1F6C6010E942508AF
S1130BE0C0E0D0E0E12CF12C0F2EF2EFCF2EF1E09B
S1130BF0DF2EF02D0E942008FE01F85E20812817C8
S1130C00B1F099279F938F931F922F93DF93CF93E4
S1130C10DF92CF920E944E098FEFE81AF80A8DB73F
S1130C209EB708960FB6F8949EBF0FBE8DBF21964F
S1130C30C11598E0D907F1F6FF92EF921F930F9335
S1130C408FE292E09F938F930E944E090F900F9032
S1130C500F900F900F900F90DF91CF911F910F91F4
S1130C60FF90EF90DF90CF9008955D9BFECF8CB9FD
S1130C7008955F9BFECF8CB108959C0140E050E045
S1130C8060E070EB84E090E00E946A062150310934
S1130C9030BD29B988E18AB986E880BD69E376E088
S1130CA085E396E00E9403099093A1028093A00239
S1130CB00895F89485B7806885BF80B7806280BF47
S1130CC08BB78F7B8BBF8AB780648ABF8BB78064F6
S1130CD08BBF0895052E97FB1EF400940E94810695
S1130CE057FD07D00E94890607FC03D04EF40C94EC
S1130CF0810650954095309521953F4F4F4F5F4F5A
S1130D00089590958095709561957F4F8F4F9F4F73
S1130D100895A1E21A2EAA1BBB1BFD010DC0AA1F38
S1130D20BB1FEE1FFF1FA217B307E407F50720F050
S1130D30A21BB30BE40BF50B661F771F881F991FCB
S1130D401A9469F760957095809590959B01AC0114
S1130D50BD01CF010895CF93DF938230910510F444
S1130D6082E090E0E091A402F091A50220E030E05E
S1130D70A0E0B0E0309739F140815181481759071C
S1130D80B8F04817590771F482819381109729F0BC
S1130D9013969C938E9312972CC09093A5028093E4
S1130DA0A40227C02115310531F04217530718F06A
S1130DB0A901DB0101C0EF019A01BD01DF0102803D
S1130DC0F381E02DD7CF21153105F9F0281B390B1C
S1130DD02430310580F48A819B816115710521F0ED
S1130DE0FB019383828304C09093A5028093A402A1
S1130DF0FE01329644C0FE01E20FF31F81939193EA
S1130E0022503109398328833AC02091A2023091BB
S1130E10A302232B41F4209102013091030130936A
S1130E20A3022093A2022091000130910101211517
S1130E30310541F42DB73EB74091040150910501AD
S1130E40241B350BE091A202F091A302E217F307F1
S1130E50A0F42E1B3F0B2817390778F0AC014E5F26
S1130E605F4F2417350748F04E0F5F1F5093A302BE
S1130E704093A2028193919302C0E0E0F0E0CF019D
S1130E80DF91CF910895CF93DF93009709F487C042
S1130E90FC01329713821282C091A402D091A50260
S1130EA0209781F420813181280F391F8091A2027B
S1130EB09091A3028217930779F5F093A302E0932C
S1130EC0A2026DC0DE0120E030E0AE17BF0750F48F
S1130ED012964D915C9113979D014115510509F1AD
S1130EE0DA01F3CFB383A28340815181840F951F2C
S1130EF08A179B0771F48D919C911197840F951F0C
S1130F0002969183808312968D919C91139793837B
S1130F1082832115310529F4F093A502E093A402FC
S1130F203EC0D9011396FC93EE9312974D915D91B7
S1130F30A40FB51FEA17FB0779F480819181840F10
S1130F40951F0296D90111969C938E938281938169
S1130F5013969C938E931297E0E0F0E08A819B8134
S1130F60009719F0FE01EC01F9CFCE010296288119
S1130F703981820F931F2091A2023091A302281776
S1130F80390769F4309729F41092A5021092A4024B
S1130F9002C013821282D093A302C093A202DF91F3
S1130FA0CF9108958F929F92AF92BF92CF92DF928A
S1130FB0EF92FF92CF93DF93EC01688179818A816C
S1130FC09B81611571058105910521F464E279ED38
S1130FD08BE597E02DE133EF41E050E00E946A0693
S1130FE049015A019B01AC01A7EAB1E40E942A0C11
S1130FF06B017C01ACEEB4EFA50194010E94380CA6
S1131000C60ED71EE81EF91EF7FE06C081E0C81AF8
S1131010D108E10880E8F80AC882D982EA82FB8212
S1131020C6019F77DF91CF91FF90EF90DF90CF9033
S1131030BF90AF909F908F9008950E94D20708951B
S113104086E091E00E94D2070895A0E0B0E080938A
S1131050060190930701A0930801B0930901089534
S1131060A0E0B0E0E6E3F8E00C94410CEC01CB0125
S1131070209719F40E94AB06B8C0FE01E60FF71FD3
S11310809E0122503109E217F30708F4ACC0D901DC
S11310900D911C91119706171707B8F0053011052B
S11310A008F49FC0A801445051094617570708F493
S11310B098C002501109061B170B019311936D93ED
S11310C07C93CF010E9443078CC05B01A01AB10A34
S11310D04E01800E911EA091A402B091A502612C34
S11310E0712C60E070E0109709F449C0A815B905A7
S11310F0C9F5ED90FC901197670142E0C40ED11C34
S1131100CA14DB0478F147018A189B08640142E0A1
S1131110C40ED11C1296BC9012971396AC91B5E0F4
S1131120CB16D10440F0B282A38391828082D9018C
S11311308D939C9309C00E5F1F4F0E0D1F1DF90167
S113114011830083EB2DFA2F6115710531F0DB015A
S11311501396FC93EE93129744C0F093A502E09388
S1131160A4023FC06D917C9111976616770608F42E
S11311703B01BD0112960D90BC91A02DB4CF60919E
S1131180A2027091A30268157905E9F4681679063C
S1131190D0F440910001509101014115510541F4F1
S11311A04DB75EB76091040170910501461B570B62
S11311B0E417F507C0F4F093A302E093A202F90147
S11311C0918380830EC00E94AB067C01009759F086
S11311D0A801BE010E94FA08CE010E944307C7017C
S11311E004C0CE0102C080E090E0CDB7DEB7EEE0EF
S11311F00C945D0CFB01DC0102C001900D92415086
S11312005040D8F708950F931F93CF93DF93EC01C9
S11312108B01009731F46115710519F480E090E0B9
S113122038C06EE070E081E090E00E94610BFC0148
S11312300097A1F380E883830115110571F01387EA
S1131240028781E883838091A6029091A702892B6B
S113125021F4F093A702E093A6022097C9F0D18766
S1131260C0878381826083838091A8029091A902C0
S1131270892B71F4F093A902E093A8028091AA0249
S11312809091AB02892B21F4F093AB02E093AA0274
S1131290CF01DF91CF911F910F910895A0E0B0E0AD
S11312A0E4E5F9E00C944D0CFE01359661917191E1
S11312B0AF018091A8029091A9020E948F09E2E0F7
S11312C00C94690C0F931F93CF93DF93E091A802C2
S11312D0F091A902238121FF1BC0EC0100E010E082
S11312E089916091A8027091A902DB011896ED9191
S11312F0FC911997882331F00995892B89F30FEF15
S11313001FEFEECF8AE00995892B11F4C80102C0C2
S11313108FEF9FEFDF91CF911F910F910895ACE074
S1131320B0E0E5E9F9E00C943D0C7C016B018A0125
S1131330FC0117821682838181FFBDC1CE01019613
S11313404C01F7019381F60193FD859193FF8191FF
S11313506F01882309F4ABC1853239F493FD85917B
S113136093FF81916F01853229F4B70190E00E94C7
S11313709A0BE7CF512C312C20E02032A0F48B3291
S113138069F030F4803259F0833269F420612CC062
S11313908D3239F0803339F4216026C02260246014
S11313A023C0286021C027FD27C030ED380F3A3014
S11313B078F426FF06C0FAE05F9E300D1124532E08
S11313C013C08AE0389E300D1124332E20620CC0E5
S11313D08E3221F426FD6BC1206406C08C3611F4D4
S11313E0206802C0883641F4F60193FD859193FF8D
S11313F081916F018111C1CF982F9F7D95549330B6
S113140028F40C5F1F4FFFE3F9830DC0833631F0DE
S1131410833771F0833509F05BC022C0F801808105
S113142089830E5F1F4F44244394512C540115C0EB
S11314303801F2E06F0E711CF801A080B18026FF24
S113144003C0652D70E002C06FEF7FEFC5012C87EC
S11314500E948F0B2C0183012C852F77222E17C01D
S11314603801F2E06F0E711CF801A080B18026FFF4
S113147003C0652D70E002C06FEF7FEFC5012C87BC
S11314800E947D0B2C012C852068222E830123FCD5
S11314901BC0832D90E048165906B0F4B70180E2D2
S11314A090E00E949A0B3A94F4CFF50127FC8591C1
S11314B027FE81915F01B70190E00E949A0B3110E1
S11314C03A94F1E04F1A51084114510471F7E5C000
S11314D0843611F0893639F5F80127FF07C0608199
S11314E07181828193810C5F1F4F08C0608171817B
S11314F0882777FD8095982F0E5F1F4F2F76B22E89
S113150097FF09C090958095709561957F4F8F4F97
S11315109F4F2068B22E2AE030E0A4010E94CC0B39
S1131520A82EA81844C0853729F42F7EB22E2AE0AD
S113153030E025C0F22FF97FBF2E8F36C1F018F4AA
S1131540883579F0B4C0803719F0883721F0AFC0FE
S11315502F2F2061B22EB4FE0DC08B2D8460B82EC7
S113156009C024FF0AC09F2F9660B92E06C028E048
S113157030E005C020E130E002C020E132E0F801B3
S1131580B7FE07C060817181828193810C5F1F4F18
S113159006C06081718180E090E00E5F1F4FA4015E
S11315A00E94CC0BA82EA818FB2DFF77BF2EB6FEE9
S11315B00BC02B2D2E7FA51450F4B4FE0AC0B2FC30
S11315C008C02B2D2E7E05C07A2C2B2D03C07A2C1F
S11315D001C0752C24FF0DC0FE01EA0DF11D8081B0
S11315E0803311F4297E09C022FF06C073947394DA
S11315F004C0822F867809F0739423FD13C020FF62
S113160006C05A2C731418F4530C5718732C731403
S113161068F4B70180E290E02C870E949A0B7394DF
S11316202C85F5CF731410F4371801C0312C24FF26
S113163012C0B70180E390E02C870E949A0B2C859E
S113164022FF17C021FF03C088E590E002C088E7AD
S113165090E0B7010CC0822F867859F021FD02C0BA
S113166080E201C08BE227FD8DE2B70190E00E9489
S11316709A0BA51438F4B70180E390E00E949A0B0A
S11316805A94F7CFAA94F401EA0DF11D8081B701B1
S113169090E00E949A0BA110F5CF332009F451CEAB
S11316A0B70180E290E00E949A0B3A94F6CFF701DA
S11316B08681978102C08FEF9FEF2C96E2E10C9414
S11316C0590C0F931F93CF93DF93869F8001879FBD
S11316D0100D969F100D1124C8010E94AB06EC0159
S11316E0009729F0A80160E070E00E94880BCE0109
S11316F0DF91CF911F910F910895FC0105906150E6
S113170070400110D8F7809590958E0F9F1F089513
S1131710DC0101C06D9341505040E0F70895FC0195
S11317206150704001900110D8F7809590958E0F0C
S11317309F1F08950F931F93CF93DF93182F092FA3
S1131740EB018B8181FD03C08FEF9FEF20C082FFEF
S113175010C04E815F812C813D81421753077CF478
S1131760E881F9819F012F5F3F4F398328831083DC
S113177006C0E885F985812F0995892B29F72E81E3
S11317803F812F5F3F4F3F832E83812F902FDF9127
S1131790CF911F910F910895FA01AA27283051F192
S11317A0203181F1E8946F936E7F6E5F7F4F8F4F8E
S11317B09F4FAF4FB1E03ED0B4E03CD0670F781FED
S11317C0891F9A1FA11D680F791F8A1F911DA11DD2
S11317D06A0F711D811D911DA11D20D009F468940B
S11317E03F912AE0269F11243019305D3193DEF6B3
S11317F0CF010895462F4770405D4193B3E00FD069
S1131800C9F7F6CF462F4F70405D4A3318F0495D53
S113181031FD4052419302D0A9F7EACFB4E0A69536
S11318209795879577956795BA95C9F70097610558
S1131830710508959B01AC010A2E069457954795AE
S113184037952795BA95C9F7620F731F841F951FA3
S1131850A01D08950E94740CA59F900DB49F900D37
S1131860A49F800D911D11240895B7FF0C942A0C98
S11318700E942A0C821B930B08952F923F924F9241
S11318805F926F927F928F929F92AF92BF92CF920C
S1131890DF92EF92FF920F931F93CF93DF93CDB715
S11318A0DEB7CA1BDB0B0FB6F894DEBF0FBECDBF8D
S11318B009942A88398848885F846E847D848C845E
S11318C09B84AA84B984C884DF80EE80FD800C8167
S11318D01B81AA81B981CE0FD11D0FB6F894DEBF4A
S11318E00FBECDBFED010895A29FB001B39FC0010B
S11318F0A39F700D811D1124911DB29F700D811D38
S10D19001124911D0895F894FFCFFF
S113190A0000AC022000010000004D435032353182
S113191A35206973204E4F5420696E20636F6E66BA
S113192A6967206D6F6465206166746572207265EB
S113193A73657421004D657373616765207265630D
S113194A65697665643A200A69643A2564200A6CF2
S113195A656E6774682564200A446174613A257364
S113196A0A004D41494E204D454E5500736E65613E
S113197A6B796769726C73004A756C696500416EAC
S113198A64726561004A6F68616E6E65203C33005B
S113199A536E696B0052756E205352414D5F7465E4
S11319AA7374005374617274696E67205352414DA3
S11319BA20746573742E2E2E005772697465207014
S11319CA68617365206572726F723A206578745F14
S11319DA72616D5B2534645D203D202530325820C8
S11319EA2873686F756C6420626520253032582923
S11319FA0A0052657472696576616C207068617355
S1131A0A65206572726F723A206578745F72616DCF
S1131A1A5B2534645D203D202530325820287368C4
S1131A2A6F756C642062652025303258290A005388
S1131A3A52414D207465737420636F6D706C6574C4
S1131A4A65642077697468200A2534642065727293
S1131A5A6F727320696E2077726974652070686189
S1131A6A736520616E64200A253464206572726F7E
S1131A7A727320696E2072657472696576616C206E
S10B1A8A70686173650A0A002B
S9030000FC
