S00E00004E6F64655F312E7372656300
S11300000C94BC010C94D9010C94D9010C94F40106
S11300100C94D9010C94D9010C94D9010C94D901F4
S11300200C94D9010C94D9010C94D9010C94D901E4
S11300300C94D9010C94D9010C94D9010C94D901D4
S11300400C94D9010C94D9010C94D9010C94D901C4
S11300500C94D9010C94D9010C94D9010C94D901B4
S11300600C94D9010C94D9010C94D9010C94D901A4
S1130070000000000000000000065F5F06000000B2
S11300800007070007070000147F7F147F7F140018
S1130090242E6B6B3A120000466630180C66620020
S11300A0307A4F5D377A48000407030000000000EF
S11300B0001C3E63410000000041633E1C00000040
S11300C0082A3E1C1C3E2A0808083E3E0808000078
S11300D000A0E0600000000008080808080800000C
S11300E000006060000000006030180C060301008E
S11300F03E7F594D7F3E000042427F7F40400000DA
S1130100627359496F660000226349497F360000D3
S1130110181C16137F7F1000276745457D390000A2
S11301203C7E4B4979300000036371190F070000CE
S1130130367F49497F360000064F49693F1E00005B
S113014000006C6C0000000000A0EC6C00000000DB
S1130150081C366341000000141414141414000025
S1130160004163361C080000020351590F060000C9
S11301703E7F415D5D1F1E007C7E13137E7C00006C
S1130180417F7F49497F36001C3E63414163220021
S1130190417F7F41637F1C00417F7F495D41630054
S11301A0417F7F491D0103001C3E6341517372006E
S11301B07F7F08087F7F000000417F7F41000000AF
S11301C0307040417F3F0100417F7F081C7763000E
S11301D0417F7F41406070007F7F060C067F7F0077
S11301E07F7F060C187F7F001C3E6341633E1C002A
S11301F0417F7F49090F06001E3F21717F5E000089
S1130200417F7F19396F460026674D597B320000C4
S113021003417F7F410300007F7F40407F7F0000D8
S11302201F3F60603F1F00007F7F3018307F7F00DA
S113023063771C081C776300074F78784F0700002A
S11302406773594D47637100007F7F41410000008F
S11302500103060C183060000041417F7F0000005C
S1130260080C0603060C0800808080808080808053
S11302700000030704000000207454543C7840003C
S1130280413F7F44447C3800387C44446C2800005F
S1130290307848493F7F4000387C54545C18000053
S11302A0487E7F490302000098BCA4A4F87C0400A3
S11302B0417F7F08047C780000447D7D400000007D
S11302C040C484FD7D000000417F7F10386C4400F1
S11302D000417F7F400000007C7C0C180C7C78007F
S11302E07C7C04047C780000387C44447C38000026
S11302F084FCF8A4243C1800183C24A4F8FC8400D2
S1130300447C78441C180000485C54547424000055
S113031000043E7F442400003C7C40403C7C400080
S11303201C3C60603C1C00003C7C6030607C3C00F9
S1130330446C3810386C44009CBCA0A0FC7C0000C9
S11303404C64745C4C64000008083E774141000032
S113035000000077770000004141773E0808000064
S11303600203010302030100003838387C3810000E
S1130370FFFF7E7E3C3C181811241FBECFEFD4E053
S1130380DEBFCDBF12E0A0E0B1E0E2ECF4E102C0D8
S113039005900D92A033B107D9F722E0A0E3B2E0B3
S11303A001C01D92A934B207E1F70E9463030C94C3
S11303B05F0A0C940000F8948BB78F7D8BBF86B7CF
S11303C08E7F86BF8AB780628ABF8BB780628BBFFD
S11303D0089580930014809130028823E1F31092F1
S11303E030028091001408951F920F920FB60F925D
S11303F011248F9381E0809330028F910F900FBE70
S11304000F901F90189584E00E94E90190E090936A
S113041034028093330285E00E94E90190E09093D6
S11304203202809331020895CF92DF92EF92FF92CD
S11304300F931F93CF93DF938C016B017A018AE0B2
S113044090E00E948704EC01D982C8821B830A834E
S11304501D821C821F821E82F986E886F80164814F
S113046075816F5F7F4F660F771F868197810E942A
S11304700C06F8019783868324813581A901440FF2
S1130480551FFC01E40FF51FD183C0832F5F3F4F3D
S1130490F80135832483CE01DF91CF911F910F9111
S11304A0FF90EF90DF90CF9008950F931F93CF9319
S11304B0DF938AE090E00E948704EC0190933A0273
S11304C0809339028AE091E0998388831D821C829B
S11304D0198618864EE853E066E471E0CE010E9466
S11304E0140240E050E064E171E0CE010E94140285
S11304F08C0140E050E060E271E00E94140240E0B0
S113050050E066E271E0C8010E94140240E050E04D
S11305106DE271E0C8010E941402D8011696ED91B3
S1130520FC91179740E050E068E371E0808191818D
S11305300E941402D0933602C093350210923802FE
S113054010923702CE01DF91CF911F910F91089540
S113055020913C0250E8259F9001112440913B02D8
S113056058E0859FC0011124FC01E059F04080E06F
S1130570982F940FD901A90FB11DB85E94919C9343
S11305808F5F31968830A1F7485F40933B0208950E
S113059010923C0210923B02E0E0F0E180EB808399
S11305A0108280E18083089580933C028055E0E0CE
S11305B0F0E18083108280E1808308950E94D40258
S11305C080E890E0E0E0F2E1108201970097E1F723
S11305D00895CF930E94C802C0E08C2F0E94DE02CF
S11305E0CF5FC830D1F70E94C802CF910895E0E0F0
S11305F0F0E18EEA808381EA80838AED808382E160
S1130600808388EC808388EA80838FE3808385ED10
S1130610808380E8808381E8808380E5808389ED1E
S1130620808381E2808380E2808382E080838BED1B
S1130630808380E380838DEA8083108284EA8083D0
S113064086EA80838FEA8083108280E180830E941F
S1130650E9020E94C802089580933B02982F9F707C
S1130660E0E0F0E1908382958F70805F808308954D
S1130670CF93C62F0E94D4028C2F0E942C03CF91BB
S11306800895EF92FF920F931F93CF93DF938C0102
S11306907C01C0E0D0E006C0F70181917F010E9497
S11306A0A8022196F80101900020E9F73197E01B98
S11306B0F10BCE17DF0780F3DF91CF911F910F91DC
S11306C0FF90EF900895F89480E895E20E94230447
S11306D00E943F040E94DB0178940E9403020E945E
S11306E0F7020E9455020E9482032FEF8FE791E0E8
S11306F0215080409040E1F700C000C080E00E949B
S11307008903FCCF87B3806B87BB81E18DB96E9A77
S113071008958FB9779BFECF8FB10895CF92DF9262
S1130720EF92FF920F931F93CF93DF9363E083E0E5
S11307300E9438038DE391E00E9441038BE491E031
S11307400E943E070E94FC056C010E940106C0E065
S1130750D0E000E010E00F2EF1E6EF2EF1E0FF2EE6
S1130760F02D0E94FC05FE01F85E8083208128178D
S1130770A9F099279F938F931F922F93DF93CF9381
S1130780FF92EF920E942A070F5F1F4F8DB79EB70B
S113079008960FB6F8949EBF0FBE8DBF2196C11563
S11307A098E0D907F1F6C6010E940106C0E0D0E046
S11307B0E12CF12C0F2EFAE9CF2EF1E0DF2EF02DF3
S11307C00E94FC05FE01F85E20812817B1F09927EC
S11307D09F938F931F922F93DF93CF93DF92CF92A8
S11307E00E942A078FEFE81AF80A8DB79EB7089679
S11307F00FB6F8949EBF0FBE8DBF2196C11598E029
S1130800D907F1F6FF92EF921F930F9387ED91E0D2
S11308109F938F930E942A070F900F900F900F9031
S11308200F900F90DF91CF911F910F91FF90EF9058
S1130830DF90CF9008955D9BFECF8CB908955F9BA8
S1130840FECF8CB108959C0140E050E060E070EB75
S113085084E090E00E9446042150310930BD29B95A
S113086088E18AB986E880BD6FE174E08BE194E0A9
S11308700E94DF0690933E0280933D02089585B75F
S1130880806885BF80B7806280BF0895052E97FB7E
S11308901EF400940E945D0457FD07D00E94650475
S11308A007FC03D04EF40C945D04509540953095AC
S11308B021953F4F4F4F5F4F0895909580957095C8
S11308C061957F4F8F4F9F4F0895A1E21A2EAA1B67
S11308D0BB1BFD010DC0AA1FBB1FEE1FFF1FA217EC
S11308E0B307E407F50720F0A21BB30BE40BF50BE9
S11308F0661F771F881F991F1A9469F76095709572
S1130900809590959B01AC01BD01CF010895CF93D3
S1130910DF938230910510F482E090E0E09141028F
S1130920F091420220E030E0A0E0B0E0309739F1ED
S11309304081518148175907B8F04817590771F495
S113094082819381109729F013969C938E9312972A
S11309502CC0909342028093410227C02115310597
S113096031F04217530718F0A901DB0101C0EF0170
S11309709A01BD01DF010280F381E02DD7CF21155B
S11309803105F9F0281B390B2430310580F48A81B4
S11309909B816115710521F0FB019383828304C05F
S11309A09093420280934102FE01329644C0FE01BC
S11309B0E20FF31F819391932250310939832883E5
S11309C03AC020913F0230914002232B41F4209100
S11309D00201309103013093400220933F022091A1
S11309E00001309101012115310541F42DB73EB7C5
S11309F04091040150910501241B350BE0913F0205
S1130A00F0914002E217F307A0F42E1B3F0B2817C6
S1130A10390778F0AC014E5F5F4F2417350748F073
S1130A204E0F5F1F5093400240933F028193919376
S1130A3002C0E0E0F0E0CF01DF91CF910895CF93C1
S1130A40DF93009709F487C0FC0132971382128266
S1130A50C0914102D0914202209781F420813181DA
S1130A60280F391F80913F0290914002821793070B
S1130A7079F5F0934002E0933F026DC0DE0120E07F
S1130A8030E0AE17BF0750F412964D915C91139766
S1130A909D014115510509F1DA01F3CFB383A28316
S1130AA040815181840F951F8A179B0771F48D91A2
S1130AB09C911197840F951F0296918380831296BF
S1130AC08D919C911397938382832115310529F489
S1130AD0F0934202E09341023EC0D9011396FC9385
S1130AE0EE9312974D915D91A40FB51FEA17FB0782
S1130AF079F480819181840F951F0296D901119612
S1130B009C938E938281938113969C938E931297D8
S1130B10E0E0F0E08A819B81009719F0FE01EC018E
S1130B20F9CFCE01029628813981820F931F20913B
S1130B303F02309140022817390769F4309729F4AD
S1130B40109242021092410202C013821282D09388
S1130B504002C0933F02DF91CF9108958F929F92FC
S1130B60AF92BF92CF92DF92EF92FF92CF93DF9337
S1130B70EC01688179818A819B8161157105810508
S1130B80910521F464E279ED8BE597E02DE133EFF3
S1130B9041E050E00E94460449015A019B01AC0126
S1130BA0A7EAB1E40E94060A6B017C01ACEEB4EF43
S1130BB0A50194010E94140AC60ED71EE81EF91E50
S1130BC0F7FE06C081E0C81AD108E10880E8F80AF7
S1130BD0C882D982EA82FB82C6019F77DF91CF91D6
S1130BE0FF90EF90DF90CF90BF90AF909F908F9049
S1130BF008950E94AE05089586E091E00E94AE0536
S1130C000895A0E0B0E08093060190930701A093BB
S1130C100801B09309010895A0E0B0E0E2E1F6E034
S1130C200C941D0AEC01CB01209719F40E9487044F
S1130C30B8C0FE01E60FF71F9E0122503109E217EA
S1130C40F30708F4ACC0D9010D911C911197061754
S1130C501707B8F00530110508F49FC0A8014450E7
S1130C6051094617570708F498C002501109061B8A
S1130C70170B019311936D937C93CF010E941F0571
S1130C808CC05B01A01AB10A4E01800E911EA09186
S1130C904102B0914202612C712C60E070E0109727
S1130CA009F449C0A815B905C9F5ED90FC90119750
S1130CB0670142E0C40ED11CCA14DB0478F1470179
S1130CC08A189B08640142E0C40ED11C1296BC90A1
S1130CD012971396AC91B5E0CB16D10440F0B282D2
S1130CE0A38391828082D9018D939C9309C00E5F66
S1130CF01F4F0E0D1F1DF90111830083EB2DFA2FD9
S1130D006115710531F0DB011396FC93EE93129794
S1130D1044C0F0934202E09341023FC06D917C9144
S1130D2011976616770608F43B01BD0112960D90E3
S1130D30BC91A02DB4CF60913F0270914002681520
S1130D407905E9F468167906D0F4409100015091D0
S1130D5001014115510541F44DB75EB7609104019D
S1130D6070910501461B570BE417F507C0F4F09387
S1130D704002E0933F02F901918380830EC00E94F8
S1130D8087047C01009759F0A801BE010E94D60691
S1130D90CE010E941F05C70104C0CE0102C080E03D
S1130DA090E0CDB7DEB7EEE00C94390AFB01DC012C
S1130DB002C001900D9241505040D8F708950F930E
S1130DC01F93CF93DF93EC018B01009731F46115EE
S1130DD0710519F480E090E038C06EE070E081E0C5
S1130DE090E00E943D09FC010097A1F380E8838311
S1130DF00115110571F01387028781E883838091BF
S1130E00430290914402892B21F4F0934402E0932D
S1130E1043022097C9F0D187C0878381826083838E
S1130E208091450290914602892B71F4F093460219
S1130E30E09345028091470290914802892B21F466
S1130E40F0934802E0934702CF01DF91CF911F91C5
S1130E500F910895A0E0B0E0E0E3F7E00C94290AD4
S1130E60FE01359661917191AF0180914502909197
S1130E7046020E946B07E2E00C94450A0F931F930D
S1130E80CF93DF93E0914502F0914602238121FF45
S1130E901BC0EC0100E010E0899160914502709163
S1130EA04602DB011896ED91FC911997882331F0E5
S1130EB00995892B89F30FEF1FEFEECF8AE009958F
S1130EC0892B11F4C80102C08FEF9FEFDF91CF91FE
S1130ED01F910F910895ACE0B0E0E1E7F7E00C94C6
S1130EE0190A7C016B018A01FC0117821682838135
S1130EF081FFBDC1CE0101964C01F7019381F6013A
S1130F0093FD859193FF81916F01882309F4ABC10F
S1130F10853239F493FD859193FF81916F01853278
S1130F2029F4B70190E00E947609E7CF512C312CC7
S1130F3020E02032A0F48B3269F030F4803259F092
S1130F40833269F420612CC08D3239F0803339F456
S1130F50216026C02260246023C0286021C027FDB0
S1130F6027C030ED380F3A3078F426FF06C0FAE097
S1130F705F9E300D1124532E13C08AE0389E300D2D
S1130F801124332E20620CC08E3221F426FD6BC155
S1130F90206406C08C3611F4206802C0883641F4FF
S1130FA0F60193FD859193FF81916F018111C1CF6A
S1130FB0982F9F7D9554933028F40C5F1F4FFFE3C7
S1130FC0F9830DC0833631F0833771F0833509F02E
S1130FD05BC022C0F801808189830E5F1F4F4424C7
S1130FE04394512C540115C03801F2E06F0E711C6A
S1130FF0F801A080B18026FF03C0652D70E002C017
S11310006FEF7FEFC5012C870E946B092C018301D0
S11310102C852F77222E17C03801F2E06F0E711C39
S1131020F801A080B18026FF03C0652D70E002C0E6
S11310306FEF7FEFC5012C870E9459092C012C8585
S11310402068222E830123FC1BC0832D90E04816C8
S11310505906B0F4B70180E290E00E9476093A9410
S1131060F4CFF50127FC859127FE81915F01B7013B
S113107090E00E94760931103A94F1E04F1A510839
S11310804114510471F7E5C0843611F0893639F5FD
S1131090F80127FF07C060817181828193810C5F11
S11310A01F4F08C060817181882777FD8095982F34
S11310B00E5F1F4F2F76B22E97FF09C09095809533
S11310C0709561957F4F8F4F9F4F2068B22E2AE015
S11310D030E0A4010E94A809A82EA81844C08537AE
S11310E029F42F7EB22E2AE030E025C0F22FF97FBA
S11310F0BF2E8F36C1F018F4883579F0B4C080372C
S113110019F0883721F0AFC02F2F2061B22EB4FE22
S11311100DC08B2D8460B82E09C024FF0AC09F2FF8
S11311209660B92E06C028E030E005C020E130E02A
S113113002C020E132E0F801B7FE07C0608171818E
S1131140828193810C5F1F4F06C06081718180E0B2
S113115090E00E5F1F4FA4010E94A809A82EA818B2
S1131160FB2DFF77BF2EB6FE0BC02B2D2E7FA514B3
S113117050F4B4FE0AC0B2FC08C02B2D2E7E05C06C
S11311807A2C2B2D03C07A2C01C0752C24FF0DC0A2
S1131190FE01EA0DF11D8081803311F4297E09C01E
S11311A022FF06C07394739404C0822F867809F0DA
S11311B0739423FD13C020FF06C05A2C731418F433
S11311C0530C5718732C731468F4B70180E290E041
S11311D02C870E94760973942C85F5CF731410F430
S11311E0371801C0312C24FF12C0B70180E390E00E
S11311F02C870E9476092C8522FF17C021FF03C08B
S113120088E590E002C088E790E0B7010CC0822F27
S1131210867859F021FD02C080E201C08BE227FDEF
S11312208DE2B70190E00E947609A51438F4B70165
S113123080E390E00E9476095A94F7CFAA94F401CF
S1131240EA0DF11D8081B70190E00E947609A1109A
S1131250F5CF332009F451CEB70180E290E00E942B
S113126076093A94F6CFF7018681978102C08FEF11
S11312709FEF2C96E2E10C94350A0F931F93CF93C2
S1131280DF93869F8001879F100D969F100D112478
S1131290C8010E948704EC01009729F0A80160E0CE
S11312A070E00E946409CE01DF91CF911F910F91EC
S11312B00895FC010590615070400110D8F78095A5
S11312C090958E0F9F1F0895DC0101C06D934150CE
S11312D05040E0F70895FC01615070400190011006
S11312E0D8F7809590958E0F9F1F08950F931F93A5
S11312F0CF93DF93182F092FEB018B8181FD03C05E
S11313008FEF9FEF20C082FF10C04E815F812C8140
S11313103D81421753077CF4E881F9819F012F5FD7
S11313203F4F39832883108306C0E885F985812FD0
S11313300995892B29F72E813F812F5F3F4F3F83EA
S11313402E83812F902FDF91CF911F910F910895BC
S1131350FA01AA27283051F1203181F1E8946F93E2
S11313606E7F6E5F7F4F8F4F9F4FAF4FB1E03ED088
S1131370B4E03CD0670F781F891F9A1FA11D680F26
S1131380791F8A1F911DA11D6A0F711D811D911D59
S1131390A11D20D009F468943F912AE0269F1124CE
S11313A03019305D3193DEF6CF010895462F477032
S11313B0405D4193B3E00FD0C9F7F6CF462F4F708D
S11313C0405D4A3318F0495D31FD4052419302D0EB
S11313D0A9F7EACFB4E0A695979587957795679591
S11313E0BA95C9F700976105710508959B01AC0191
S11313F00A2E06945795479537952795BA95C9F7B8
S1131400620F731F841F951FA01D08950E94500A28
S1131410A59F900DB49F900DA49F800D911D112444
S11314200895B7FF0C94060A0E94060A821B930BC8
S113143008952F923F924F925F926F927F928F9274
S11314409F92AF92BF92CF92DF92EF92FF920F934F
S11314501F93CF93DF93CDB7DEB7CA1BDB0B0FB659
S1131460F894DEBF0FBECDBF09942A883988488816
S11314705F846E847D848C849B84AA84B984C884AC
S1131480DF80EE80FD800C811B81AA81B981CE0FA3
S1131490D11D0FB6F894DEBF0FBECDBFED01089588
S11314A0A29FB001B39FC001A39F700D811D1124A1
S11314B0911DB29F700D811D1124911D0895F89402
S10514C0FFCF58
S11314C2000049022000010000004D41494E204D18
S11314D2454E5500736E65616B796769726C730072
S11314E24A756C696500416E64726561004A6F6891
S11314F2616E6E65203C3300536E696B0052756EEB
S1131502205352414D5F7465737400537461727455
S1131512696E67205352414D20746573742E2E2ECA
S11315220057726974652070686173652065727210
S11315326F723A206578745F72616D5B2534645D05
S1131542203D2025303258202873686F756C642042
S113155262652025303258290A0052657472696521
S113156276616C207068617365206572726F723A7D
S1131572206578745F72616D5B2534645D203D2063
S113158225303258202873686F756C642062652098
S113159225303258290A005352414D207465737420
S11315A220636F6D706C657465642077697468205C
S11315B20A253464206572726F727320696E207713
S11315C27269746520706861736520616E64200AB3
S11315D2253464206572726F727320696E2072659D
S11315E27472696576616C2070686173650A0A00B9
S9030000FC
