S00C0000746573742E7372656358
S11300000C9438000C9455000C9455000C9470001A
S11300100C9455000C9455000C9455000C94550008
S11300200C9455000C9455000C9455000C945500F8
S11300300C9455000C9455000C9455000C945500E8
S11300400C9455000C9455000C9455000C945500D8
S11300500C9455000C9455000C9455000C945500C8
S11300600C9455000C9455000C9455000C945500B8
S113007011241FBECFEFD4E0DEBFCDBF11E0A0E05E
S1130080B1E0EEECFAE002C005900D92AA30B1079F
S1130090D9F721E0AAE0B1E001C01D92A731B2076F
S11300A0E1F70E947F000C9465050C940000F8941D
S11300B08BB78F7D8BBF86B78E7F86BF8AB78062F2
S11300C08ABF8BB780628BBF0895809300148091A0
S11300D00A018823E1F310920A0180910014089523
S11300E01F920F920FB60F9211248F9381E0809389
S11300F00A018F910F900FBE0F901F90189580E802
S113010095E20E94A9000E94C5000E9457007894BD
S1130110C6E0D1E084E00E9465001F928F93DF93D4
S1130120CF930E9458019FEF2FE781E09150204028
S11301308040E1F700C000C00F900F900F900F9027
S1130140E9CF5D9BFECF8CB908955F9BFECF8CB148
S113015008959C0140E050E060E070EB84E090E0A2
S11301600E94CC002150310930BD29B988E18AB9F7
S113017086E880BD65EA70E081EA90E00E940D01A6
S113018090930C0180930B01089585B7806885BF17
S113019080B7806280BF0895052E97FB1EF40094FB
S11301A00E94E30057FD07D00E94EB0007FC03D038
S11301B04EF40C94E30050954095309521953F4FB3
S11301C04F4F5F4F089590958095709561957F4F3F
S11301D08F4F9F4F0895A1E21A2EAA1BBB1BFD014E
S11301E00DC0AA1FBB1FEE1FFF1FA217B307E40712
S11301F0F50720F0A21BB30BE40BF50B661F771F6A
S1130200881F991F1A9469F7609570958095909549
S11302109B01AC01BD01CF0108950F931F93CF93B0
S1130220DF93EC018B01009731F46115710519F42A
S113023080E090E038C06EE070E081E090E00E94E1
S11302403E03FC010097A1F380E8838301151105A7
S113025071F01387028781E8838380910D01909167
S11302600E01892B21F4F0930E01E0930D012097E8
S1130270C9F0D187C08783818260838380910F0115
S113028090911001892B71F4F0931001E0930F0108
S11302908091110190911201892B21F4F0931201A4
S11302A0E0931101CF01DF91CF911F910F91089538
S11302B0A0E0B0E0EEE5F1E00C943E05FE013596D9
S11302C061917191AF0180910F01909110010E9491
S11302D06C01E2E00C945A05ACE0B0E0E2E7F1E036
S11302E00C942E057C016B018A01FC011782168295
S11302F0838181FFBDC1CE0101964C01F701938139
S1130300F60193FD859193FF81916F01882309F490
S1130310ABC1853239F493FD859193FF81916F01CF
S1130320853229F4B70190E00E949E04E7CF512C56
S1130330312C20E02032A0F48B3269F030F480328A
S113034059F0833269F420612CC08D3239F0803346
S113035039F4216026C02260246023C0286021C0B3
S113036027FD27C030ED380F3A3078F426FF06C059
S1130370FAE05F9E300D1124532E13C08AE0389E9C
S1130380300D1124332E20620CC08E3221F426FD50
S11303906BC1206406C08C3611F4206802C0883614
S11303A041F4F60193FD859193FF81916F018111D1
S11303B0C1CF982F9F7D9554933028F40C5F1F4F25
S11303C0FFE3F9830DC0833631F0833771F0833551
S11303D009F05BC022C0F801808189830E5F1F4F42
S11303E044244394512C540115C03801F2E06F0E9B
S11303F0711CF801A080B18026FF03C0652D70E058
S113040002C06FEF7FEFC5012C870E9493042C017B
S113041083012C852F77222E17C03801F2E06F0E4E
S1130420711CF801A080B18026FF03C0652D70E027
S113043002C06FEF7FEFC5012C870E9481042C015D
S11304402C852068222E830123FC1BC0832D90E081
S113045048165906B0F4B70180E290E00E949E0469
S11304603A94F4CFF50127FC859127FE81915F0131
S1130470B70190E00E949E0431103A94F1E04F1AC3
S113048051084114510471F7E5C0843611F08936DE
S113049039F5F80127FF07C060817181828193815A
S11304A00C5F1F4F08C060817181882777FD80959C
S11304B0982F0E5F1F4F2F76B22E97FF09C090958D
S11304C08095709561957F4F8F4F9F4F2068B22E16
S11304D02AE030E0A4010E94D004A82EA81844C049
S11304E0853729F42F7EB22E2AE030E025C0F22F82
S11304F0F97FBF2E8F36C1F018F4883579F0B4C077
S1130500803719F0883721F0AFC02F2F2061B22E29
S1130510B4FE0DC08B2D8460B82E09C024FF0AC020
S11305209F2F9660B92E06C028E030E005C020E178
S113053030E002C020E132E0F801B7FE07C060817C
S11305407181828193810C5F1F4F06C0608171812C
S113055080E090E00E5F1F4FA4010E94D004A82EFB
S1130560A818FB2DFF77BF2EB6FE0BC02B2D2E7FB8
S1130570A51450F4B4FE0AC0B2FC08C02B2D2E7E84
S113058005C07A2C2B2D03C07A2C01C0752C24FFB6
S11305900DC0FE01EA0DF11D8081803311F4297E26
S11305A009C022FF06C07394739404C0822F867816
S11305B009F0739423FD13C020FF06C05A2C731452
S11305C018F4530C5718732C731468F4B70180E2B1
S11305D090E02C870E949E0473942C85F5CF7314AD
S11305E010F4371801C0312C24FF12C0B70180E386
S11305F090E02C870E949E042C8522FF17C021FFC7
S113060003C088E590E002C088E790E0B7010CC021
S1130610822F867859F021FD02C080E201C08BE26E
S113062027FD8DE2B70190E00E949E04A51438F4E2
S1130630B70180E390E00E949E045A94F7CFAA94F5
S1130640F401EA0DF11D8081B70190E00E949E043F
S1130650A110F5CF332009F451CEB70180E290E028
S11306600E949E043A94F6CFF7018681978102C0D6
S11306708FEF9FEF2C96E2E10C944A050F931F93A2
S1130680CF93DF93869F8001879F100D969F100D57
S11306901124C8010E945A03EC01009729F0A80113
S11306A060E070E00E948C04CE01DF91CF911F9135
S11306B00F910895CF93DF938230910510F482E077
S11306C090E0E0911501F091160120E030E0A0E007
S11306D0B0E0309739F14081518148175907B8F09B
S11306E04817590771F482819381109729F0139662
S11306F09C938E9312972CC09093160180931501AE
S113070027C02115310531F04217530718F0A9010C
S1130710DB0101C0EF019A01BD01DF010280F38119
S1130720E02DD7CF21153105F9F0281B390B2430E2
S1130730310580F48A819B816115710521F0FB01EB
S11307409383828304C09093160180931501FE0164
S1130750329644C0FE01E20FF31F8193919322501D
S11307603109398328833AC020911301309114014F
S1130770232B41F4209102013091030130931401A1
S113078020931301209100013091010121153105BD
S113079041F42DB73EB74091040150910501241B4B
S11307A0350BE0911301F0911401E217F307A0F463
S11307B02E1B3F0B2817390778F0AC014E5F5F4FB3
S11307C02417350748F04E0F5F1F509314014093D0
S11307D013018193919302C0E0E0F0E0CF01DF9137
S11307E0CF910895CF93DF93009709F487C0FC015C
S11307F0329713821282C0911501D091160120976D
S113080081F420813181280F391F80911301909147
S113081014018217930779F5F0931401E0931301FF
S11308206DC0DE0120E030E0AE17BF0750F4129631
S11308304D915C9113979D014115510509F1DA0120
S1130840F3CFB383A28340815181840F951F8A170C
S11308509B0771F48D919C911197840F951F0296BB
S11308609183808312968D919C91139793838283B5
S11308702115310529F4F0931601E09315013EC0CA
S1130880D9011396FC93EE9312974D915D91A40FA9
S1130890B51FEA17FB0779F480819181840F951FB6
S11308A00296D90111969C938E938281938113961B
S11308B09C938E931297E0E0F0E08A819B810097ED
S11308C019F0FE01EC01F9CFCE010296288139819D
S11308D0820F931F209113013091140128173907B7
S11308E069F4309729F4109216011092150102C090
S11308F013821282D0931401C0931301DF91CF911C
S11309000895FC010590615070400110D8F780955E
S113091090958E0F9F1F0895DC0101C06D93415087
S11309205040E0F70895FC016150704001900110BF
S1130930D8F7809590958E0F9F1F08950F931F935E
S1130940CF93DF93182F092FEB018B8181FD03C017
S11309508FEF9FEF20C082FF10C04E815F812C81FA
S11309603D81421753077CF4E881F9819F012F5F91
S11309703F4F39832883108306C0E885F985812F8A
S11309800995892B29F72E813F812F5F3F4F3F83A4
S11309902E83812F902FDF91CF911F910F91089576
S11309A0FA01AA27283051F1203181F1E8946F939C
S11309B06E7F6E5F7F4F8F4F9F4FAF4FB1E03ED042
S11309C0B4E03CD0670F781F891F9A1FA11D680FE0
S11309D0791F8A1F911DA11D6A0F711D811D911D13
S11309E0A11D20D009F468943F912AE0269F112488
S11309F03019305D3193DEF6CF010895462F4770EC
S1130A00405D4193B3E00FD0C9F7F6CF462F4F7046
S1130A10405D4A3318F0495D31FD4052419302D0A4
S1130A20A9F7EACFB4E0A69597958795779567954A
S1130A30BA95C9F700976105710508959B01AC014A
S1130A400A2E06945795479537952795BA95C9F771
S1130A50620F731F841F951FA01D08952F923F924C
S1130A604F925F926F927F928F929F92AF92BF92BA
S1130A70CF92DF92EF92FF920F931F93CF93DF9366
S1130A80CDB7DEB7CA1BDB0B0FB6F894DEBF0FBEC3
S1130A90CDBF09942A88398848885F846E847D8410
S1130AA08C849B84AA84B984C884DF80EE80FD8012
S1130AB00C811B81AA81B981CE0FD11D0FB6F89488
S1110AC0DEBF0FBECDBFED010895F894FFCF49
S10D0ACE00001701200025640A004F
S9030000FC
