S00C0000746573742E7372656358
S11300000C94B4010C94D1010C94D1010C94EC0126
S11300100C94D1010C94D1010C94D1010C94D10114
S11300200C94D1010C94D1010C94D1010C94D10104
S11300300C94D1010C94D1010C94D1010C94D101F4
S11300400C94D1010C94D1010C94D1010C94D101E4
S11300500C94D1010C94D1010C94D1010C94D101D4
S11300600C94D1010C94D1010C94D1010C94D101C4
S1130070000000000000000000065F5F06000000B2
S11300800007070007070000147F7F147F7F140018
S1130090242E6B6B3A120000466630180C66620020
S11300A0307A4F5D377A48000407030000000000EF
S11300B0001C3E63410000000041633E1C00000040
S11300C0082A3E1C1C3E2A0808083E3E0808000078
S11300D000A0E0600000000008080808080800000C
S11300E000006060000000006030180C060301008E
S11300F03E7F594D7F3E000042427F7F40400000DA
S1130100627359496F660000226349497F360000D3
S1130110181C16137F7F1000276745457D390000A2
S11301203C7E4B4979300000036371190F070000CE
S1130130367F49497F360000064F49693F1E00005B
S113014000006C6C0000000000A0EC6C00000000DB
S1130150081C366341000000141414141414000025
S1130160004163361C080000020351590F060000C9
S11301703E7F415D5D1F1E007C7E13137E7C00006C
S1130180417F7F49497F36001C3E63414163220021
S1130190417F7F41637F1C00417F7F495D41630054
S11301A0417F7F491D0103001C3E6341517372006E
S11301B07F7F08087F7F000000417F7F41000000AF
S11301C0307040417F3F0100417F7F081C7763000E
S11301D0417F7F41406070007F7F060C067F7F0077
S11301E07F7F060C187F7F001C3E6341633E1C002A
S11301F0417F7F49090F06001E3F21717F5E000089
S1130200417F7F19396F460026674D597B320000C4
S113021003417F7F410300007F7F40407F7F0000D8
S11302201F3F60603F1F00007F7F3018307F7F00DA
S113023063771C081C776300074F78784F0700002A
S11302406773594D47637100007F7F41410000008F
S11302500103060C183060000041417F7F0000005C
S1130260080C0603060C0800808080808080808053
S11302700000030704000000207454543C7840003C
S1130280413F7F44447C3800387C44446C2800005F
S1130290307848493F7F4000387C54545C18000053
S11302A0487E7F490302000098BCA4A4F87C0400A3
S11302B0417F7F08047C780000447D7D400000007D
S11302C040C484FD7D000000417F7F10386C4400F1
S11302D000417F7F400000007C7C0C180C7C78007F
S11302E07C7C04047C780000387C44447C38000026
S11302F084FCF8A4243C1800183C24A4F8FC8400D2
S1130300447C78441C180000485C54547424000055
S113031000043E7F442400003C7C40403C7C400080
S11303201C3C60603C1C00003C7C6030607C3C00F9
S1130330446C3810386C44009CBCA0A0FC7C0000C9
S11303404C64745C4C64000008083E774141000032
S113035000000077770000004141773E0808000064
S1130360020301030203010011241FBECFEFD4E0F6
S1130370DEBFCDBF11E0A0E0B1E0E6E9F9E002C0E4
S113038005900D92AC31B107D9F721E0ACE1B1E0B1
S113039001C01D92AF32B207E1F70E94A6020C948D
S11303A0C9040C940000F8948BB78F7D8BBF86B77B
S11303B08E7F86BF8AB780628ABF8BB780628BBF0D
S11303C008958093001480911C018823E1F3109216
S11303D01C018091001408951F920F920FB60F9282
S11303E011248F9381E080931C018F910F900FBE95
S11303F00F901F90189584E00E94E10190E0909383
S1130400200180931F0185E00E94E10190E0909318
S11304101E0180931D01089528E0829FC0011124CC
S1130420FC01E059F04020E030E0A0E0B2E184912A
S11304308C932F5F3F4F319628303105C1F70895D3
S11304401092220110922101E0E0F0E180EB808320
S1130450108280E180830895809322018055E0E03A
S1130460F0E18083108280E1808308950E942C0251
S113047080E890E0E0E0F2E1108201970097E1F774
S11304800895CF930E942002C0E08C2F0E94360270
S1130490CF5FC830D1F70E942002CF910895E0E0E9
S11304A0F0E18EEA808381EA80838AED808382E1B1
S11304B0808388EC808388EA80838FE3808385ED62
S11304C0808380E8808381E8808380E5808389ED70
S11304D0808381E2808380E2808382E080838BED6D
S11304E0808380E380838DEA8083108284EA808322
S11304F086EA80838FEA8083108280E180830E9471
S113050041020E9420020895EF92FF920F931F93DD
S1130510CF93DF938C017C01C0E0D0E006C0F701EB
S113052081917F010E940C022196F8010190002024
S1130530E9F73197E01BF10BCE17DF0780F3DF916A
S1130540CF911F910F91FF90EF90089580E895E26D
S11305500E94D0020E94EC020E94D30178940E946F
S1130560FB010E944F022FEF8FE791E02150804062
S11305709040E1F700C000C086E091E00E94840250
S113058081E00E94360287E191E00E948402FFCF5D
S11305905D9BFECF8CB908955F9BFECF8CB108950F
S11305A09C0140E050E060E070EB84E090E00E9449
S11305B0F3022150310930BD29B988E18AB986E8AE
S11305C080BD6CEC72E088EC92E00E94340390935E
S11305D0240180932301089585B7806885BF80B77F
S11305E0806280BF0895052E97FB1EF400940E943C
S11305F00A0357FD07D00E94120307FC03D04EF4F0
S11306000C940A0350954095309521953F4F4F4FD8
S11306105F4F089590958095709561957F4F8F4FAA
S11306209F4F0895A1E21A2EAA1BBB1BFD010DC00A
S1130630AA1FBB1FEE1FFF1FA217B307E407F5078E
S113064020F0A21BB30BE40BF50B661F771F881F6A
S1130650991F1A9469F760957095809590959B0100
S1130660AC01BD01CF0108950F931F93CF93DF9386
S1130670EC018B01009731F46115710519F480E0E8
S113068090E038C06EE070E081E090E00E947F036B
S1130690FC010097A1F380E883830115110571F033
S11306A01387028781E88383809125019091260135
S11306B0892B21F4F0932601E09325012097C9F0BA
S11306C0D187C08783818260838380912701909141
S11306D02801892B71F4F0932801E093270180917C
S11306E0290190912A01892B21F4F0932A01E093A6
S11306F02901CF01DF91CF911F910F9108950F939D
S11307001F93CF93DF93869F8001879F100D969F41
S1130710100D1124C8010E949B03EC01009729F0DD
S1130720A80160E070E00E94C204CE01DF91CF9185
S11307301F910F910895CF93DF938230910510F4A8
S113074082E090E0E0912D01F0912E0120E030E074
S1130750A0E0B0E0309739F1408151814817590742
S1130760B8F04817590771F482819381109729F0E2
S113077013969C938E9312972CC090932E01809382
S11307802D0127C02115310531F04217530718F008
S1130790A901DB0101C0EF019A01BD01DF01028063
S11307A0F381E02DD7CF21153105F9F0281B390B42
S11307B02430310580F48A819B816115710521F013
S11307C0FB019383828304C090932E0180932D01B7
S11307D0FE01329644C0FE01E20FF31F8193919310
S11307E022503109398328833AC020912B0130915A
S11307F02C01232B41F42091020130910301309309
S11308002C0120932B01209100013091010121152D
S1130810310541F42DB73EB74091040150910501D3
S1130820241B350BE0912B01F0912C01E217F30707
S1130830A0F42E1B3F0B2817390778F0AC014E5F4C
S11308405F4F2417350748F04E0F5F1F50932C015C
S113085040932B018193919302C0E0E0F0E0CF013B
S1130860DF91CF910895CF93DF93009709F487C068
S1130870FC01329713821282C0912D01D0912E0176
S1130880209781F420813181280F391F80912B0119
S113089090912C018217930779F5F0932C01E09342
S11308A02B016DC0DE0120E030E0AE17BF0750F42D
S11308B012964D915C9113979D014115510509F1D3
S11308C0DA01F3CFB383A28340815181840F951F52
S11308D08A179B0771F48D919C911197840F951F32
S11308E002969183808312968D919C9113979383A2
S11308F082832115310529F4F0932E01E0932D0113
S11309003EC0D9011396FC93EE9312974D915D91DD
S1130910A40FB51FEA17FB0779F480819181840F36
S1130920951F0296D90111969C938E93828193818F
S113093013969C938E931297E0E0F0E08A819B815A
S1130940009719F0FE01EC01F9CFCE01029628813F
S11309503981820F931F20912B0130912C0128178C
S1130960390769F4309729F410922E0110922D0161
S113097002C013821282D0932C01C0932B01DF9109
S1130980CF910895DC0101C06D9341505040E0F7D0
S10909900895F894FFCF66
S113099600002F01200054686973206C696E65207D
S10F09A669732074686500626573740056
S9030000FC
