S00C0000746573742E7372656358
S11300000C9438000C9455000C9455000C94550035
S11300100C9455000C9455000C9455000C94550008
S11300200C9455000C9455000C9455000C945500F8
S11300300C9455000C9455000C9455000C945500E8
S11300400C9455000C9455000C9455000C945500D8
S11300500C9455000C9455000C9455000C945500C8
S11300600C9455000C9455000C9455000C945500B8
S113007011241FBECFEFD4E0DEBFCDBF11E0A0E05E
S1130080B1E0E4E5F5E002C005900D92A232B107BB
S1130090D9F721E0A2E2B1E001C01D92AE32B2076D
S11300A0E1F70E9457000C94A8020C94000080E829
S11300B095E20E94890089E70E94810086E091E030
S11300C00E9431012FEF8FE797E02150804090404C
S11300D0E1F700C000008CE091E00E94310184E16E
S11300E091E00E9431010E948500882329F00E943A
S11300F0810089E70E9481008CE191E00E94310136
S1130100E1CF5D9BFECF8CB908955F9BFECF8CB190
S113011008959C0140E050E060E070EB84E090E0E2
S11301200E94A5002150310930BD29B988E18AB95E
S113013086E880BD65E870E081E890E00E94E60012
S113014090932301809322010895052E97FB1EF4BA
S113015000940E94BC0057FD07D00E94C40007FC15
S113016003D04EF40C94BC005095409530952195E5
S11301703F4F4F4F5F4F08959095809570956195CF
S11301807F4F8F4F9F4F0895A1E21A2EAA1BBB1BCE
S1130190FD010DC0AA1FBB1FEE1FFF1FA217B3074F
S11301A0E407F50720F0A21BB30BE40BF50B661F65
S11301B0771F881F991F1A9469F760957095809529
S11301C090959B01AC01BD01CF0108950F931F933E
S11301D0CF93DF93EC018B01009731F46115710526
S11301E019F480E090E038C06EE070E081E090E0C7
S11301F00E945E01FC010097A1F380E8838301154E
S1130200110571F01387028781E8838380912401AB
S113021090912501892B21F4F0932501E093240189
S11302202097C9F0D187C0878381826083838091BE
S1130230260190912701892B71F4F0932701E09313
S113024026018091280190912901892B21F4F093B2
S11302502901E0932801CF01DF91CF911F910F91E4
S113026008950F931F93CF93DF93E0912601F091AC
S11302702701238121FF1BC0EC0100E010E08991DC
S11302806091260170912701DB011896ED91FC9194
S11302901997882331F00995892B89F30FEF1FEF04
S11302A0EECF8AE00995892B11F4C80102C08FEFC3
S11302B09FEFDF91CF911F910F9108950F931F939B
S11302C0CF93DF93869F8001879F100D969F100D1B
S11302D01124C8010E947A01EC01009729F0A801B9
S11302E060E070E00E94A102CE01DF91CF911F91E6
S11302F00F910895CF93DF938230910510F482E03B
S113030090E0E0912C01F0912D0120E030E0A0E09C
S1130310B0E0309739F14081518148175907B8F05E
S11303204817590771F482819381109729F0139625
S11303309C938E9312972CC090932D0180932C0143
S113034027C02115310531F04217530718F0A901D0
S1130350DB0101C0EF019A01BD01DF010280F381DD
S1130360E02DD7CF21153105F9F0281B390B2430A6
S1130370310580F48A819B816115710521F0FB01AF
S11303809383828304C090932D0180932C01FE01FA
S1130390329644C0FE01E20FF31F819391932250E1
S11303A03109398328833AC020912A0130912B01E5
S11303B0232B41F4209102013091030130932B014E
S11303C020932A012091000130910101211531056A
S11303D041F42DB73EB74091040150910501241B0F
S11303E0350BE0912A01F0912B01E217F307A0F4F9
S11303F02E1B3F0B2817390778F0AC014E5F5F4F77
S11304002417350748F04E0F5F1F50932B0140937C
S11304102A018193919302C0E0E0F0E0CF01DF91E3
S1130420CF910895CF93DF93009709F487C0FC011F
S1130430329713821282C0912C01D0912D01209702
S113044081F420813181280F391F80912A019091F4
S11304502B018217930779F5F0932B01E0932A017E
S11304606DC0DE0120E030E0AE17BF0750F41296F5
S11304704D915C9113979D014115510509F1DA01E4
S1130480F3CFB383A28340815181840F951F8A17D0
S11304909B0771F48D919C911197840F951F02967F
S11304A09183808312968D919C9113979383828379
S11304B02115310529F4F0932D01E0932C013EC060
S11304C0D9011396FC93EE9312974D915D91A40F6D
S11304D0B51FEA17FB0779F480819181840F951F7A
S11304E00296D90111969C938E93828193811396DF
S11304F09C938E931297E0E0F0E08A819B810097B1
S113050019F0FE01EC01F9CFCE0102962881398160
S1130510820F931F20912A0130912B01281739074C
S113052069F4309729F410922D0110922C0102C025
S113053013821282D0932B01C0932A01DF91CF91B1
S11305400895DC0101C06D9341505040E0F70895D7
S1070550F894FFCF49
S113055400002E01200048656C6C6F0020697473E0
S1130564206D650048656C6C6F6F6F0074657374FF
S1050574000081
S9030000FC
