S00C0000746573742E7372656358
S11300000C94BC010C94D9010C94D9010C94F40106
S11300100C94D9010C94D9010C94D9010C94D901F4
S11300200C94D9010C94D9010C94D9010C94D901E4
S11300300C94D9010C94D9010C94D9010C94D901D4
S11300400C94D9010C94D9010C94D9010C94D901C4
S11300500C94D9010C94D9010C94D9010C94D901B4
S11300600C94D9010C94D9010C94D9010C94D901A4
S1130070000000000000000000065F5F06000000B2
S11300800007070007070000147F7F147F7F140018
S1130090242E6B6B3A120000466630180C66620020
S11300A0307A4F5D377A48000407030000000000EF
S11300B0001C3E63410000000041633E1C00000040
S11300C0082A3E1C1C3E2A0808083E3E0808000078
S11300D000A0E0600000000008080808080800000C
S11300E000006060000000006030180C060301008E
S11300F03E7F594D7F3E000042427F7F40400000DA
S1130100627359496F660000226349497F360000D3
S1130110181C16137F7F1000276745457D390000A2
S11301203C7E4B4979300000036371190F070000CE
S1130130367F49497F360000064F49693F1E00005B
S113014000006C6C0000000000A0EC6C00000000DB
S1130150081C366341000000141414141414000025
S1130160004163361C080000020351590F060000C9
S11301703E7F415D5D1F1E007C7E13137E7C00006C
S1130180417F7F49497F36001C3E63414163220021
S1130190417F7F41637F1C00417F7F495D41630054
S11301A0417F7F491D0103001C3E6341517372006E
S11301B07F7F08087F7F000000417F7F41000000AF
S11301C0307040417F3F0100417F7F081C7763000E
S11301D0417F7F41406070007F7F060C067F7F0077
S11301E07F7F060C187F7F001C3E6341633E1C002A
S11301F0417F7F49090F06001E3F21717F5E000089
S1130200417F7F19396F460026674D597B320000C4
S113021003417F7F410300007F7F40407F7F0000D8
S11302201F3F60603F1F00007F7F3018307F7F00DA
S113023063771C081C776300074F78784F0700002A
S11302406773594D47637100007F7F41410000008F
S11302500103060C183060000041417F7F0000005C
S1130260080C0603060C0800808080808080808053
S11302700000030704000000207454543C7840003C
S1130280413F7F44447C3800387C44446C2800005F
S1130290307848493F7F4000387C54545C18000053
S11302A0487E7F490302000098BCA4A4F87C0400A3
S11302B0417F7F08047C780000447D7D400000007D
S11302C040C484FD7D000000417F7F10386C4400F1
S11302D000417F7F400000007C7C0C180C7C78007F
S11302E07C7C04047C780000387C44447C38000026
S11302F084FCF8A4243C1800183C24A4F8FC8400D2
S1130300447C78441C180000485C54547424000055
S113031000043E7F442400003C7C40403C7C400080
S11303201C3C60603C1C00003C7C6030607C3C00F9
S1130330446C3810386C44009CBCA0A0FC7C0000C9
S11303404C64745C4C64000008083E774141000032
S113035000000077770000004141773E0808000064
S11303600203010302030100003838387C3810000E
S1130370FFFF7E7E3C3C181811241FBECFEFD4E053
S1130380DEBFCDBF12E0A0E0B1E0EEE6FCE102C0CA
S113039005900D92A033B107D9F722E0A0E3B2E0B3
S11303A001C01D92AD34B207E1F70E9485050C949B
S11303B0350E0C940000F8948BB78F7D8BBF86B7F5
S11303C08E7F86BF8AB780628ABF8BB780628BBFFD
S11303D0089580930014809130028823E1F31092F1
S11303E030028091001408951F920F920FB60F925D
S11303F011248F9381E0809330028F910F900FBE70
S11304000F901F90189584E00E94E90190E090936A
S113041034028093330285E00E94E90190E09093D6
S113042032028093310208958F929F92AF92BF92CD
S1130430DF92EF92FF920F931F93CF93DF9384E0A9
S11304400E94E901F82E009133021091340285E0F4
S11304500E94E901D82EC0913102D09132026F2D51
S113046070E0601B710B882777FD8095982F0E94A0
S113047005074B015C01EE24EA94F12CB701601BE3
S1130480710B882777FD8095982F0E9405079B01A3
S1130490AC01C501B4010E946A0620E030E048ECDA
S11304A052E40E9491070E94D2068B018D2D90E0A8
S11304B08C1B9D0BB7016C1B7D0B0E94F40784E61B
S11304C0869F9001879F300D1124C901B801DF91E7
S11304D0CF911F910F91FF90EF90DF90BF90AF905D
S11304E09F908F9008950E9414029B01833391057D
S11304F05CF48E3C9F4F54F0633371054CF42E3CF6
S11305003F4F44F482E0089580E0089581E0089527
S113051083E0089584E00895CF92DF92EF92FF92F2
S11305200F931F93CF93DF938C016B017A018AE0C1
S113053090E00E945D08EC01D982C8821B830A8383
S11305401D821C821F821E82F986E886F80164815E
S113055075816F5F7F4F660F771F868197810E9439
S1130560E209F8019783868324813581A901440F28
S1130570551FFC01E40FF51FD183C0832F5F3F4F4C
S1130580F80135832483CE01DF91CF911F910F9120
S1130590FF90EF90DF90CF9008950F931F93CF9328
S11305A0DF938AE090E00E945D08EC0190933A02A8
S11305B0809339028AE091E0998388831D821C82AA
S11305C01986188642EB55E066E471E0CE010E947C
S11305D08C0240E050E064E171E0CE010E948C02A4
S11305E08C0140E050E060E271E00E948C0240E047
S11305F050E066E271E0C8010E948C0240E050E0E5
S11306006DE271E0C8010E948C02D8011696ED914A
S1130610FC91179740E050E068E371E0808191819C
S11306200E948C02D0933602C09335021092380295
S113063010923702CE01DF91CF911F910F9108954F
S11306400E947302813039F0F8F0823009F461C0FD
S1130650833099F17DC080913702909138020196E0
S113066090933802809337022FE986E891E0215075
S113067080409040E1F700C0000081E090E090935A
S11306803C0280933B0264C080913702909138020F
S1130690019790933802809337022FE986E891E01E
S11306A0215080409040E1F700C0000081E090E0DC
S11306B090933C0280933B024BC0A0913502B091D1
S11306C03602E0913702F0913802EE0FFF1F1696C2
S11306D08D919C911797E80FF91F80819181009764
S11306E0B9F1909336028093350210923802109239
S11306F037022FE986E891E0215080409040E1F7ED
S113070000C0000081E090E090933C0280933B02A3
S11307101FC0E0913502F0913602828193810097E7
S1130720B9F09093360280933502109238021092F9
S113073037022FE986E891E0215080409040E1F7AC
S113074000C0000081E090E090933C0280933B0263
S1130750E0913502F091360280859185892B19F15B
S11307600E946E0480913502909136020E94E80442
S1130770E0913502F09136020084F185E02D09956F
S11307802FE382E49FE0215080409040E1F700C0D5
S11307900000E0913502F0913602828193819093BA
S11307A036028093350280913702909138028F3F50
S11307B02FEF920799F4E0913502F091360284818B
S11307C09581009729F4109238021092370213C0D1
S11307D0019790933802809337020DC0E09135025F
S11307E0F0913602248135818217930724F0109208
S11307F03802109237020E946E0480913502909163
S113080036020E94E80480913702909138020E94D7
S11308102505089520913E0250E8259F900111245A
S113082040913D0258E0859FC0011124FC01E0592C
S1130830F04080E0982F940FD901A90FB11DB85E44
S113084094919C938F5F31968830A1F7485F4093D1
S11308503D02089510923E0210923D02E0E0F0E164
S113086080EB8083108280E18083089580933E0230
S11308708055E0E0F0E18083108280E18083089578
S1130880CF93C82F0E94360480E8C89F900111249A
S113089080E090E0385EF901E80FF91F10820196BC
S11308A080389105C1F7CF910895CF930E942A040F
S11308B0C0E08C2F0E944004CF5FC830D1F70E9463
S11308C02A04CF9108950E94360480E890E0E0E085
S11308D0F2E1108201970097E1F70895CF930E9407
S11308E02A04C0E08C2F0E946304CF5FC830D1F784
S11308F00E942A04CF910895E0E0F0E18EEA80831B
S113090081EA80838AED808382E1808388EC80831E
S113091088EA80838FE3808385ED808380E8808309
S113092081E8808380E5808389ED808381E2808310
S113093080E2808382E080838BED808380E3808308
S11309408DEA8083108284EA808386EA80838FEA3A
S11309508083108280E180830E946E040E942A04B6
S1130960089580933D02982F9F70E0E0F0E190831A
S113097082958F70805F80830895CF93C62F0E94E5
S113098036048C2F0E94B104CF910895EF92FF9208
S11309900F931F93CF93DF938C017C01C0E0D0E0D1
S11309A006C0F70181917F010E940A042196F80193
S11309B001900020E9F73197E01BF10BCE17DF0718
S11309C080F3DF91CF911F910F91FF90EF900895E5
S11309D0EF92FF920F931F93CF93DF937C010E94BA
S11309E02A04D7018D919C910E94C604F701848149
S11309F095811816190614F500E010E0C1E0D0E066
S1130A008C2F0E9436048AE00E94B104D701169606
S1130A10ED91FC911797E00FF11F0190F081E02D0B
S1130A20808191810E94C604CE0121960E5F1F4FE2
S1130A30F701248135818217930714F3DF91CF9155
S1130A401F910F91FF90EF9008958F5F0E943604DD
S1130A5080E00E94B10420913E0280E8289F90012A
S1130A60112460913D02E0E7F3E088E793E0462F2C
S1130A70D901A40FB11DB85E54915C934F5F3196B8
S1130A80E817F907A9F7685F60933D0208959F92FC
S1130A90AF92BF92CF92DF92EF92FF920F931F9388
S1130AA0CF93DF930E942A04C12CD12CB12C912C1A
S1130AB0A12C0F2EE12CF2E1FF2EF02D8B2D0E94A4
S1130AC03604C92DDA2D8601185E8C2F0E94B104DC
S1130AD0F801EC0FFD1F9081F70190832196C03837
S1130AE0D10599F7B394F0E8CF0ED11C88E0B81281
S1130AF0E5CFDF91CF911F910F91FF90EF90DF90A1
S1130B00CF90BF90AF909F90089580E895E20E94A7
S1130B1047060E9463060E94DB0178940E94030248
S1130B200E947C040E94CD022FEF8FE791E02150B8
S1130B3080409040E1F700C000C00E9455040E942C
S1130B40200380913F0290914002892BB1F30E94CF
S1130B50470580E090EF0197F1F710924002109260
S1130B603F02EBCFCF92DF92EF92FF920F931F934E
S1130B70CF93DF9363E083E00E94BD048DE391E0B3
S1130B800E94C6048BE491E00E94140B0E94D209D7
S1130B906C010E94D709C0E0D0E000E010E00F2E05
S1130BA0F1E6EF2EF1E0FF2EF02D0E94D209FE01B6
S1130BB0F85E808320812817A9F099279F938F934B
S1130BC01F922F93DF93CF93FF92EF920E94000B1B
S1130BD00F5F1F4F8DB79EB708960FB6F8949EBF50
S1130BE00FBE8DBF2196C11598E0D907F1F6C60155
S1130BF00E94D709C0E0D0E0E12CF12C0F2EFAE9D5
S1130C00CF2EF1E0DF2EF02D0E94D209FE01F85E16
S1130C1020812817B1F099279F938F931F922F93C8
S1130C20DF93CF93DF92CF920E94000B8FEFE81AED
S1130C30F80A8DB79EB708960FB6F8949EBF0FBEFC
S1130C408DBF2196C11598E0D907F1F6FF92EF9276
S1130C501F930F9387ED91E09F938F930E94000B56
S1130C600F900F900F900F900F900F90DF91CF91F6
S1130C701F910F91FF90EF90DF90CF9008955D9BAF
S1130C80FECF8CB908955F9BFECF8CB108959C0173
S1130C9040E050E060E070EB84E090E00E940808DF
S1130CA02150310930BD29B988E18AB986E880BD6F
S1130CB063E476E08FE396E00E94B50A90934202E3
S1130CC080934102089585B7806885BF80B78062AC
S1130CD080BF08950CD0EBC0E3D040F0DAD030F000
S1130CE021F45F3F19F0CCC0511115C1CFC0F0D031
S1130CF098F39923C9F35523B1F3951B550BBB27DF
S1130D00AA2762177307840738F09F5F5F4F220F8B
S1130D10331F441FAA1FA9F333D00E2E3AF0E0E884
S1130D2030D091505040E695001CCAF729D0FE2FD0
S1130D3027D0660F771F881FBB1F26173707480762
S1130D40AB07B0E809F0BB0B802DBF01FF27935818
S1130D505F4F2AF09E3F510568F092C0DCC05F3FB0
S1130D60ECF3983EDCF3869577956795B795F79500
S1130D709F5FC9F7880F911D9695879597F90895F8
S1130D80E1E0660F771F881FBB1F62177307840794
S1130D90BA0720F0621B730B840BBA0BEE1F88F7A3
S1130DA0E095089504D06894B111B5C0089598D021
S1130DB088F09F5790F0B92F9927B751A0F0D1F040
S1130DC0660F771F881F991F1AF0BA95C9F712C0CA
S1130DD0B13081F09FD0B1E008959CC0672F782F87
S1130DE08827B85F39F0B93FCCF386957795679536
S1130DF0B395D9F73EF490958095709561957F4FA2
S1130E008F4F9F4F0895E89409C097FB3EF4909547
S1130E108095709561957F4F8F4F9F4F9923A9F0CF
S1130E20F92F96E9BB279395F6958795779567955E
S1130E30B795F111F8CFFAF4BB0F11F460FF1BC0A2
S1130E406F5F7F4F8F4F9F4F16C0882311F096E935
S1130E5011C0772321F09EE8872F762F05C06623E3
S1130E6071F096E8862F70E060E02AF09A95660F9C
S1130E70771F881FDAF7880F9695879597F9089555
S1130E8097F99F6780E870E060E008959FEF80EC39
S1130E90089500240A9416161706180609060895DC
S1130EA000240A9412161306140605060895092E42
S1130EB00394000C11F4882352F0BB0F40F4BF2BB1
S1130EC011F460FF04C06F5F7F4F8F4F9F4F0895F1
S1130ED057FD9058440F551F59F05F3F71F04795E7
S1130EE0880F97FB991F61F09F3F79F087950895CC
S1130EF0121613061406551FF2CF4695F1DF08C0EB
S1130F00161617061806991FF1CF86957105610507
S1130F1008940895E894BB2766277727CB0197F9AF
S1130F2008950BD0C4CFB5DF28F0BADF18F09523AD
S1130F3009F0A6CFABCF1124EECFCADFA0F3959F63
S1130F40D1F3950F50E0551F629FF001729FBB27AC
S1130F50F00DB11D639FAA27F00DB11DAA1F649F58
S1130F606627B00DA11D661F829F2227B00DA11D0B
S1130F70621F739FB00DA11D621F839FA00D611D91
S1130F80221F749F3327A00D611D231F849F600DB2
S1130F90211D822F762F6A2F11249F5750408AF0EB
S1130FA0E1F088234AF0EE0FFF1FBB1F661F771F77
S1130FB0881F91505040A9F79E3F510570F060CFB3
S1130FC0AACF5F3FECF3983EDCF38695779567955F
S1130FD0B795F795E7959F5FC1F7FE2B880F911D95
S1130FE09695879597F9089597FB072E16F4009424
S1130FF007D077FD09D00E94270807FC05D03EF4EE
S1131000909581959F4F0895709561957F4F0895B0
S1131010052E97FB1EF400940E941F0857FD07D06D
S11310200E943B0807FC03D04EF40C941F08509513
S11310304095309521953F4F4F4F5F4F08959095C0
S11310408095709561957F4F8F4F9F4F0895AA1B90
S1131050BB1B51E107C0AA1FBB1FA617B70710F09F
S1131060A61BB70B881F991F5A95A9F780959095D1
S1131070BC01CD010895A1E21A2EAA1BBB1BFD01E0
S11310800DC0AA1FBB1FEE1FFF1FA217B307E40763
S1131090F50720F0A21BB30BE40BF50B661F771FBB
S11310A0881F991F1A9469F760957095809590959B
S11310B09B01AC01BD01CF010895CF93DF93823032
S11310C0910510F482E090E0E0914502F09146022F
S11310D020E030E0A0E0B0E0309739F14081518168
S11310E048175907B8F04817590771F4828193815A
S11310F0109729F013969C938E9312972CC090937B
S113110046028093450227C02115310531F042176C
S1131110530718F0A901DB0101C0EF019A01BD01D9
S1131120DF010280F381E02DD7CF21153105F9F0DD
S1131130281B390B2430310580F48A819B81611589
S1131140710521F0FB019383828304C090934602CE
S113115080934502FE01329644C0FE01E20FF31F64
S11311608193919322503109398328833AC0209185
S1131170430230914402232B41F420910201309127
S113118003013093440220934302209100013091E3
S113119001012115310541F42DB73EB740910401F9
S11311A050910501241B350BE0914302F091440258
S11311B0E217F307A0F42E1B3F0B2817390778F02A
S11311C0AC014E5F5F4F2417350748F04E0F5F1F89
S11311D050934402409343028193919302C0E0E010
S11311E0F0E0CF01DF91CF910895CF93DF93009783
S11311F009F487C0FC01329713821282C091450220
S1131200D0914602209781F420813181280F391F23
S113121080914302909144028217930779F5F093E9
S11312204402E09343026DC0DE0120E030E0AE17DB
S1131230BF0750F412964D915C9113979D0141158F
S1131240510509F1DA01F3CFB383A28340815181BF
S1131250840F951F8A179B0771F48D919C911197A8
S1131260840F951F02969183808312968D919C9191
S11312701397938382832115310529F4F093460251
S1131280E09345023EC0D9011396FC93EE93129766
S11312904D915D91A40FB51FEA17FB0779F4808186
S11312A09181840F951F0296D90111969C938E9378
S11312B08281938113969C938E931297E0E0F0E0E1
S11312C08A819B81009719F0FE01EC01F9CFCE01D0
S11312D0029628813981820F931F20914302309115
S11312E044022817390769F4309729F4109246020A
S11312F01092450202C013821282D0934402C0931A
S11313004302DF91CF9108958F929F92AF92BF9243
S1131310CF92DF92EF92FF92CF93DF93EC0168813B
S113132079818A819B81611571058105910521F47B
S113133064E279ED8BE597E02DE133EF41E050E095
S11313400E94080849015A019B01AC01A7EAB1E4D3
S11313500E94DC0D6B017C01ACEEB4EFA50194019D
S11313600E94EA0DC60ED71EE81EF91EF7FE06C03F
S113137081E0C81AD108E10880E8F80AC882D98255
S1131380EA82FB82C6019F77DF91CF91FF90EF90B5
S1131390DF90CF90BF90AF909F908F9008950E9460
S11313A08409089586E091E00E9484090895A0E0EC
S11313B0B0E08093060190930701A0930801B093D5
S11313C009010895A0E0B0E0E8EEF9E00C94F30D13
S11313D0EC01CB01209719F40E945D08B8C0FE010E
S11313E0E60FF71F9E0122503109E217F30708F4B4
S11313F0ACC0D9010D911C91119706171707B8F0CD
S11314000530110508F49FC0A8014450510946173E
S1131410570708F498C002501109061B170B0193D3
S113142011936D937C93CF010E94F5088CC05B01EE
S1131430A01AB10A4E01800E911EA0914502B091EE
S11314404602612C712C60E070E0109709F449C0E9
S1131450A815B905C9F5ED90FC901197670142E014
S1131460C40ED11CCA14DB0478F147018A189B0806
S1131470640142E0C40ED11C1296BC9012971396DC
S1131480AC91B5E0CB16D10440F0B282A383918233
S11314908082D9018D939C9309C00E5F1F4F0E0D5E
S11314A01F1DF90111830083EB2DFA2F61157105BE
S11314B031F0DB011396FC93EE93129744C0F09342
S11314C04602E09345023FC06D917C9111976616E8
S11314D0770608F43B01BD0112960D90BC91A02D36
S11314E0B4CF609143027091440268157905E9F420
S11314F068167906D0F4409100015091010141151C
S1131500510541F44DB75EB7609104017091050136
S1131510461B570BE417F507C0F4F0934402E0931D
S11315204302F901918380830EC00E945D087C010F
S1131530009759F0A801BE010E94AC0ACE010E9496
S1131540F508C70104C0CE0102C080E090E0CDB729
S1131550DEB7EEE00C940F0EFB01DC0102C001903B
S11315600D9241505040D8F708950F931F93CF9395
S1131570DF93EC018B01009731F46115710519F4C7
S113158080E090E038C06EE070E081E090E00E947E
S1131590130DFC010097A1F380E883830115110565
S11315A071F01387028781E88383809147029091C9
S11315B04802892B21F4F0934802E09347022097D4
S11315C0C9F0D187C0878381826083838091490277
S11315D090914A02892B71F4F0934A02E0934902F4
S11315E080914B0290914C02892B21F4F0934C0290
S11315F0E0934B02CF01DF91CF911F910F9108959A
S1131600A0E0B0E0E6E0FBE00C94FF0DFE013596AF
S113161061917191AF018091490290914A020E94B7
S1131620410BE2E00C941B0E0F931F93CF93DF93B7
S1131630E0914902F0914A02238121FF1BC0EC0191
S113164000E010E089916091490270914A02DB0147
S11316501896ED91FC911997882331F00995892BFF
S113166089F30FEF1FEFEECF8AE00995892B11F470
S1131670C80102C08FEF9FEFDF91CF911F910F91AF
S11316800895ACE0B0E0E7E4FBE00C94EF0D7C01DE
S11316906B018A01FC0117821682838181FFBDC11F
S11316A0CE0101964C01F7019381F60193FD8591DA
S11316B093FF81916F01882309F4ABC1853239F41A
S11316C093FD859193FF81916F01853229F4B701D0
S11316D090E00E944C0DE7CF512C312C20E02032B9
S11316E0A0F48B3269F030F4803259F0833269F41B
S11316F020612CC08D3239F0803339F4216026C04A
S11317002260246023C0286021C027FD27C030ED5B
S1131710380F3A3078F426FF06C0FAE05F9E300DA9
S11317201124532E13C08AE0389E300D1124332E19
S113173020620CC08E3221F426FD6BC1206406C0E9
S11317408C3611F4206802C0883641F4F60193FD0A
S1131750859193FF81916F018111C1CF982F9F7D56
S11317609554933028F40C5F1F4FFFE3F9830DC0A9
S1131770833631F0833771F0833509F05BC022C0C2
S1131780F801808189830E5F1F4F44244394512CB8
S1131790540115C03801F2E06F0E711CF801A080ED
S11317A0B18026FF03C0652D70E002C06FEF7FEFAC
S11317B0C5012C870E94410D2C0183012C852F77B4
S11317C0222E17C03801F2E06F0E711CF801A080C0
S11317D0B18026FF03C0652D70E002C06FEF7FEF7C
S11317E0C5012C870E942F0D2C012C852068222EE8
S11317F0830123FC1BC0832D90E048165906B0F4E6
S1131800B70180E290E00E944C0D3A94F4CFF501C8
S113181027FC859127FE81915F01B70190E00E942A
S11318204C0D31103A94F1E04F1A5108411451040F
S113183071F7E5C0843611F0893639F5F80127FFD0
S113184007C060817181828193810C5F1F4F08C042
S113185060817181882777FD8095982F0E5F1F4FD7
S11318602F76B22E97FF09C090958095709561955B
S11318707F4F8F4F9F4F2068B22E2AE030E0A401A3
S11318800E947E0DA82EA81844C0853729F42F7E07
S1131890B22E2AE030E025C0F22FF97FBF2E8F361A
S11318A0C1F018F4883579F0B4C0803719F088375E
S11318B021F0AFC02F2F2061B22EB4FE0DC08B2DAE
S11318C08460B82E09C024FF0AC09F2F9660B92EE9
S11318D006C028E030E005C020E130E002C020E18D
S11318E032E0F801B7FE07C0608171818281938183
S11318F00C5F1F4F06C06081718180E090E00E5F35
S11319001F4FA4010E947E0DA82EA818FB2DFF775F
S1131910BF2EB6FE0BC02B2D2E7FA51450F4B4FEA3
S11319200AC0B2FC08C02B2D2E7E05C07A2C2B2DAC
S113193003C07A2C01C0752C24FF0DC0FE01EA0DF2
S1131940F11D8081803311F4297E09C022FF06C075
S11319507394739404C0822F867809F0739423FDE2
S113196013C020FF06C05A2C731418F4530C5718D4
S1131970732C731468F4B70180E290E02C870E9402
S11319804C0D73942C85F5CF731410F4371801C0E3
S1131990312C24FF12C0B70180E390E02C870E9411
S11319A04C0D2C8522FF17C021FF03C088E590E071
S11319B002C088E790E0B7010CC0822F867859F006
S11319C021FD02C080E201C08BE227FD8DE2B70158
S11319D090E00E944C0DA51438F4B70180E390E028
S11319E00E944C0D5A94F7CFAA94F401EA0DF11D0C
S11319F08081B70190E00E944C0DA110F5CF3320F7
S1131A0009F451CEB70180E290E00E944C0D3A9463
S1131A10F6CFF7018681978102C08FEF9FEF2C9656
S1131A20E2E10C940B0E0F931F93CF93DF93869FE9
S1131A308001879F100D969F100D1124C8010E94EC
S1131A405D08EC01009729F0A80160E070E00E94B5
S1131A503A0DCE01DF91CF911F910F910895FC01B2
S1131A600590615070400110D8F7809590958E0FC5
S1131A709F1F0895DC0101C06D9341505040E0F771
S1131A800895FC016150704001900110D8F78095D1
S1131A9090958E0F9F1F08950F931F93CF93DF93FD
S1131AA0182F092FEB018B8181FD03C08FEF9FEF6E
S1131AB020C082FF10C04E815F812C813D8142177E
S1131AC053077CF4E881F9819F012F5F3F4F3983ED
S1131AD02883108306C0E885F985812F0995892B11
S1131AE029F72E813F812F5F3F4F3F832E83812F24
S1131AF0902FDF91CF911F910F910895FA01AA279A
S1131B00283051F1203181F1E8946F936E7F6E5F3C
S1131B107F4F8F4F9F4FAF4FB1E03ED0B4E03CD0EA
S1131B20670F781F891F9A1FA11D680F791F8A1FCD
S1131B30911DA11D6A0F711D811D911DA11D20D034
S1131B4009F468943F912AE0269F11243019305DEE
S1131B503193DEF6CF010895462F4770405D4193DF
S1131B60B3E00FD0C9F7F6CF462F4F70405D4A332C
S1131B7018F0495D31FD4052419302D0A9F7EACFF4
S1131B80B4E0A6959795879577956795BA95C9F723
S1131B9000976105710508959B01AC010A2E069416
S1131BA05795479537952795BA95C9F7620F731FCF
S1131BB0841F951FA01D08950E94260EA59F900DB9
S1131BC0B49F900DA49F800D911D11240895B7FF1B
S1131BD00C94DC0D0E94DC0D821B930B08952F9254
S1131BE03F924F925F926F927F928F929F92AF92A9
S1131BF0BF92CF92DF92EF92FF920F931F93CF93F6
S1131C00DF93CDB7DEB7CA1BDB0B0FB6F894DEBF8C
S1131C100FBECDBF09942A88398848885F846E84B2
S1131C207D848C849B84AA84B984C884DF80EE80FC
S1131C30FD800C811B81AA81B981CE0FD11D0FB605
S1131C40F894DEBF0FBECDBFED010895A29FB00191
S1131C50B39FC001A39F700D811D1124911DB29FDC
S1111C60700D811D1124911D0895F894FFCF7D
S1131C6E00004D022000010000004D41494E204D60
S1131C7E454E5500736E65616B796769726C7300BE
S1131C8E4A756C696500416E64726561004A6F68DD
S1131C9E616E6E65203C3300536E696B0052756E37
S1131CAE205352414D5F74657374005374617274A2
S1131CBE696E67205352414D20746573742E2E2E17
S1131CCE005772697465207068617365206572725D
S1131CDE6F723A206578745F72616D5B2534645D52
S1131CEE203D2025303258202873686F756C64208F
S1131CFE62652025303258290A005265747269656E
S1131D0E76616C207068617365206572726F723AC9
S1131D1E206578745F72616D5B2534645D203D20AF
S1131D2E25303258202873686F756C6420626520E4
S1131D3E25303258290A005352414D20746573746C
S1131D4E20636F6D706C65746564207769746820A8
S1131D5E0A253464206572726F727320696E20775F
S1131D6E7269746520706861736520616E64200AFF
S1131D7E253464206572726F727320696E207265E9
S1131D8E7472696576616C2070686173650A0A0005
S9030000FC
