S00C0000746573742E7372656358
S11300000C94BC010C94D9010C94D9010C94F40106
S11300100C94D9010C94D9010C94D9010C94D901F4
S11300200C94D9010C94D9010C94D9010C94D901E4
S11300300C94D9010C94D9010C94D9010C94D901D4
S11300400C94D9010C94D9010C94D9010C94D901C4
S11300500C94D9010C94D9010C94D9010C94D901B4
S11300600C94D9010C94D9010C94D9010C94D901A4
S1130070000000000000000000065F5F06000000B2
S11300800007070007070000147F7F147F7F140018
S1130090242E6B6B3A120000466630180C66620020
S11300A0307A4F5D377A48000407030000000000EF
S11300B0001C3E63410000000041633E1C00000040
S11300C0082A3E1C1C3E2A0808083E3E0808000078
S11300D000A0E0600000000008080808080800000C
S11300E000006060000000006030180C060301008E
S11300F03E7F594D7F3E000042427F7F40400000DA
S1130100627359496F660000226349497F360000D3
S1130110181C16137F7F1000276745457D390000A2
S11301203C7E4B4979300000036371190F070000CE
S1130130367F49497F360000064F49693F1E00005B
S113014000006C6C0000000000A0EC6C00000000DB
S1130150081C366341000000141414141414000025
S1130160004163361C080000020351590F060000C9
S11301703E7F415D5D1F1E007C7E13137E7C00006C
S1130180417F7F49497F36001C3E63414163220021
S1130190417F7F41637F1C00417F7F495D41630054
S11301A0417F7F491D0103001C3E6341517372006E
S11301B07F7F08087F7F000000417F7F41000000AF
S11301C0307040417F3F0100417F7F081C7763000E
S11301D0417F7F41406070007F7F060C067F7F0077
S11301E07F7F060C187F7F001C3E6341633E1C002A
S11301F0417F7F49090F06001E3F21717F5E000089
S1130200417F7F19396F460026674D597B320000C4
S113021003417F7F410300007F7F40407F7F0000D8
S11302201F3F60603F1F00007F7F3018307F7F00DA
S113023063771C081C776300074F78784F0700002A
S11302406773594D47637100007F7F41410000008F
S11302500103060C183060000041417F7F0000005C
S1130260080C0603060C0800808080808080808053
S11302700000030704000000207454543C7840003C
S1130280413F7F44447C3800387C44446C2800005F
S1130290307848493F7F4000387C54545C18000053
S11302A0487E7F490302000098BCA4A4F87C0400A3
S11302B0417F7F08047C780000447D7D400000007D
S11302C040C484FD7D000000417F7F10386C4400F1
S11302D000417F7F400000007C7C0C180C7C78007F
S11302E07C7C04047C780000387C44447C38000026
S11302F084FCF8A4243C1800183C24A4F8FC8400D2
S1130300447C78441C180000485C54547424000055
S113031000043E7F442400003C7C40403C7C400080
S11303201C3C60603C1C00003C7C6030607C3C00F9
S1130330446C3810386C44009CBCA0A0FC7C0000C9
S11303404C64745C4C64000008083E774141000032
S113035000000077770000004141773E0808000064
S11303600203010302030100003838387C3810000E
S1130370FFFF7E7E3C3C181811241FBECFEFD4E053
S1130380DEBFCDBF12E0A0E0B1E0E0E7FCE102C0D7
S113039005900D92A034B107D9F722E0A0E4B2E0B1
S11303A001C01D92A935B207E1F70E946F050C94B4
S11303B0360E0C940000F8948BB78F7D8BBF86B7F4
S11303C08E7F86BF8AB780628ABF8BB780628BBFFD
S11303D0089580930014809140028823E1F31092E1
S11303E040028091001408951F920F920FB60F924D
S11303F011248F9381E0809340028F910F900FBE60
S11304000F901F90189584E00E94E90190E090936A
S113041044028093430285E00E94E90190E09093B6
S113042042028093410208958F929F92AF92BF92AD
S1130430DF92EF92FF920F931F93CF93DF9384E0A9
S11304400E94E901F82E009143021091440285E0D4
S11304500E94E901D82EC0914102D09142026F2D31
S113046070E0601B710B882777FD8095982F0E94A0
S113047006074B015C01EE24EA94F12CB701601BE2
S1130480710B882777FD8095982F0E9406079B01A2
S1130490AC01C501B4010E946B0620E030E048ECD9
S11304A052E40E9492070E94D3068B018D2D90E0A6
S11304B08C1B9D0BB7016C1B7D0B0E94F50784E61A
S11304C0869F9001879F300D1124C901B801DF91E7
S11304D0CF911F910F91FF90EF90DF90BF90AF905D
S11304E09F908F9008950E9414029B01833391057D
S11304F05CF48E3C9F4F54F0633371054CF42E3CF6
S11305003F4F44F482E0089580E0089581E0089527
S113051083E0089584E00895CF92DF92EF92FF92F2
S11305200F931F93CF93DF938C016B017A018AE0C1
S113053090E00E945E08EC01D982C8821B830A8382
S11305401D821C821F821E82F986E886F80164815E
S113055075816F5F7F4F660F771F868197810E9439
S1130560E309F8019783868324813581A901440F27
S1130570551FFC01E40FF51FD183C0832F5F3F4F4C
S1130580F80135832483CE01DF91CF911F910F9120
S1130590FF90EF90DF90CF9008950F931F93CF9328
S11305A0DF938AE090E00E945E08EC0190934A0297
S11305B0809349028AE091E0998388831D821C829A
S11305C01986188643EB55E065E571E0CE010E947B
S11305D08C0240E050E064E171E0CE010E948C02A4
S11305E08C0140E050E060E271E00E948C0240E047
S11305F050E066E271E0C8010E948C0240E050E0E5
S11306006DE271E0C8010E948C02D8011696ED914A
S1130610FC91179740E050E068E371E0808191819C
S11306200E948C02D0934602C09345021092480265
S113063010924702CE01DF91CF911F910F9108953F
S11306400E947302813039F0C8F0823009F44FC03F
S1130650833039F165C08091470290914802019638
S113066090934802809347022FE986E891E0215055
S113067080409040E1F700C0000052C080914702E2
S113068090914802019790934802809347022FE982
S113069086E891E0215080409040E1F700C00000DE
S11306A03FC0A0914502B0914602E0914702F0910B
S11306B04802EE0FFF1F16968D919C911797E80F35
S11306C0F91F80819181009759F19093460280939C
S11306D0450210924802109247022FE986E891E001
S11306E0215080409040E1F700C0000019C0E09123
S11306F04502F091460282819381009789F090939C
S113070046028093450210924802109247022FE954
S113071086E891E0215080409040E1F700C000005D
S1130720E0914502F091460280859185892B19F16B
S11307300E94560480914502909146020E94D00482
S1130740E0914502F09146020084F185E02D09957F
S11307502FE382E49FE0215080409040E1F700C005
S11307600000E0914502F0914602828193819093CA
S113077046028093450280914702909148028F3F40
S11307802FEF920799F4E0914502F091460284819B
S11307909581009729F4109248021092470213C0E1
S11307A0019790934802809347020DC0E09145025F
S11307B0F0914602248135818217930724F0109228
S11307C04802109247020E9456048091450290917B
S11307D046020E94D00480914702909148020E94F0
S11307E00D05089520914C0250E8259F9001112495
S11307F040914B0258E0859FC0011124FC01E0594F
S1130800F04080E0982F940FD901A90FB11DB85E74
S113081094919C938F5F31968830A1F7485F409301
S11308204B02089510924C0210924B02E0E0F0E16A
S113083080EB8083108280E18083089580934C0252
S11308408055E0E0F0E18083108280E180830895A8
S1130850CF93C82F0E941E0480E8C89F90011124E2
S113086080E090E0385EF901E80FF91F10820196EC
S113087080389105C1F7CF910895CF930E94120457
S1130880C0E08C2F0E942804CF5FC830D1F70E94AB
S11308901204CF9108950E941E0480E890E0E0E0E5
S11308A0F2E1108201970097E1F70895CF930E9437
S11308B01204C0E08C2F0E944B04CF5FC830D1F7E4
S11308C00E941204CF910895E0E0F0E18EEA808363
S11308D081EA80838AED808382E1808388EC80834F
S11308E088EA80838FE3808385ED808380E880833A
S11308F081E8808380E5808389ED808381E2808341
S113090080E2808382E080838BED808380E3808338
S11309108DEA8083108284EA808386EA80838FEA6A
S11309208083108280E180830E9456040E94120416
S1130930089580934B02982F9F70E0E0F0E190833C
S113094082958F70805F80830895CF93C62F0E9415
S11309501E048C2F0E949904CF910895EF92FF9268
S11309600F931F93CF93DF938C017C01C0E0D0E001
S113097006C0F70181917F010E94F2032196F801DC
S113098001900020E9F73197E01BF10BCE17DF0748
S113099080F3DF91CF911F910F91FF90EF90089515
S11309A0EF92FF920F931F93CF93DF937C010E94EA
S11309B01204D7018D919C910E94AE04F7018481A9
S11309C095811816190614F500E010E0C1E0D0E096
S11309D08C2F0E941E048AE00E949904D701169667
S11309E0ED91FC911797E00FF11F0190F081E02D3C
S11309F0808191810E94AE04CE0121960E5F1F4F2B
S1130A00F701248135818217930714F3DF91CF9185
S1130A101F910F91FF90EF9008958F5F0E941E0425
S1130A2080E00E94990420914C0280E8289F900164
S1130A30112460914B02E0E7F3E088E793E0462F4E
S1130A40D901A40FB11DB85E54915C934F5F3196E8
S1130A50E817F907A9F7685F60934B0208959F921E
S1130A60AF92BF92CF92DF92EF92FF920F931F93B8
S1130A70CF93DF930E9456040E941204C12CD12C00
S1130A80B12C912CA12C0F2EE12CF2E1FF2EF02D94
S1130A908B2D0E941E04C92DDA2D8601185E8C2F21
S1130AA00E949904F801EC0FFD1F9081F7019083D7
S1130AB02196C038D10599F7B394F0E8CF0ED11C34
S1130AC088E0B812E5CFDF91CF911F910F91FF908D
S1130AD0EF90DF90CF90BF90AF909F90089580E803
S1130AE095E20E9448060E9464060E94DB01789405
S1130AF00E9403020E9464040E94CD022FEF8FE73C
S1130B0091E0215080409040E1F700C000C040E0F7
S1130B1050E070E060E00EC0F901E80FF91F1082A8
S1130B20019680389105C1F740585F4F411524E084
S1130B30520729F0872F962F9A01385EEDCF8DE367
S1130B4091E00E94150B0E943D040E9420030E9424
S1130B502F058FEF9FE721E0815090402040E1F77F
S1130B6000C000C0F0CFCF92DF92EF92FF920F93BC
S1130B701F93CF93DF9363E083E00E94A5048CE48A
S1130B8091E00E94AE048AE591E00E94150B0E9458
S1130B90D3096C010E94D809C0E0D0E000E010E065
S1130BA00F2EF0E7EF2EF1E0FF2EF02D0E94D30977
S1130BB0FE01F85E808320812817A9F099279F936E
S1130BC08F931F922F93DF93CF93FF92EF920E9404
S1130BD0010B0F5F1F4F8DB79EB708960FB6F894A1
S1130BE09EBF0FBE8DBF2196C11598E0D907F1F6BF
S1130BF0C6010E94D809C0E0D0E0E12CF12C0F2EF0
S1130C00F9EACF2EF1E0DF2EF02D0E94D309FE0188
S1130C10F85E20812817B1F099279F938F931F9234
S1130C202F93DF93CF93DF92CF920E94010B8FEF2C
S1130C30E81AF80A8DB79EB708960FB6F8949EBFC7
S1130C400FBE8DBF2196C11598E0D907F1F6FF922A
S1130C50EF921F930F9386EE91E09F938F930E94E0
S1130C60010B0F900F900F900F900F900F90DF914A
S1130C70CF911F910F91FF90EF90DF90CF90089547
S1130C805D9BFECF8CB908955F9BFECF8CB1089518
S1130C909C0140E050E060E070EB84E090E00E9452
S1130CA009082150310930BD29B988E18AB986E89B
S1130CB080BD64E476E080E496E00E94B60A9093F6
S1130CC04E0280934D02089585B7806885BF80B732
S1130CD0806280BF08950CD0EBC0E3D040F0DAD03E
S1130CE030F021F45F3F19F0CCC0511115C1CFC0D1
S1130CF0F0D098F39923C9F35523B1F3951B550B01
S1130D00BB27AA2762177307840738F09F5F5F4FDA
S1130D10220F331F441FAA1FA9F333D00E2E3AF01B
S1130D20E0E830D091505040E695001CCAF729D035
S1130D30FE2F27D0660F771F881FBB1F2617370784
S1130D404807AB07B0E809F0BB0B802DBF01FF27B4
S1130D5093585F4F2AF09E3F510568F092C0DCC063
S1130D605F3FECF3983EDCF3869577956795B795EE
S1130D70F7959F5FC9F7880F911D9695879597F909
S1130D800895E1E0660F771F881FBB1F6217730782
S1130D908407BA0720F0621B730B840BBA0BEE1F97
S1130DA088F7E095089504D06894B111B5C008950A
S1130DB098D088F09F5790F0B92F9927B751A0F099
S1130DC0D1F0660F771F881F991F1AF0BA95C9F7DB
S1130DD012C0B13081F09FD0B1E008959CC0672F5C
S1130DE0782F8827B85F39F0B93FCCF3869577958B
S1130DF06795B395D9F73EF4909580957095619574
S1130E007F4F8F4F9F4F0895E89409C097FB3EF49E
S1130E1090958095709561957F4F8F4F9F4F992343
S1130E20A9F0F92F96E9BB279395F69587957795C1
S1130E306795B795F111F8CFFAF4BB0F11F460FF81
S1130E401BC06F5F7F4F8F4F9F4F16C0882311F0D9
S1130E5096E911C0772321F09EE8872F762F05C0ED
S1130E60662371F096E8862F70E060E02AF09A9588
S1130E70660F771F881FDAF7880F9695879597F97D
S1130E80089597F99F6780E870E060E008959FEF08
S1130E9080EC089500240A9416161706180609060D
S1130EA0089500240A9412161306140605060895DC
S1130EB0092E0394000C11F4882352F0BB0F40F464
S1130EC0BF2B11F460FF04C06F5F7F4F8F4F9F4FA4
S1130ED0089557FD9058440F551F59F05F3F71F026
S1130EE04795880F97FB991F61F09F3F79F087958D
S1130EF00895121613061406551FF2CF4695F1DF16
S1130F0008C0161617061806991FF1CF86957105A5
S1130F10610508940895E894BB2766277727CB01D9
S1130F2097F908950BD0C4CFB5DF28F0BADF18F0D5
S1130F30952309F0A6CFABCF1124EECFCADFA0F3DF
S1130F40959FD1F3950F50E0551F629FF001729F5A
S1130F50BB27F00DB11D639FAA27F00DB11DAA1F79
S1130F60649F6627B00DA11D661F829F2227B00DC6
S1130F70A11D621F739FB00DA11D621F839FA00D51
S1130F80611D221F749F3327A00D611D231F849FA1
S1130F90600D211D822F762F6A2F11249F575040F8
S1130FA08AF0E1F088234AF0EE0FFF1FBB1F661F93
S1130FB0771F881F91505040A9F79E3F510570F04C
S1130FC060CFAACF5F3FECF3983EDCF3869577952C
S1130FD06795B795F795E7959F5FC1F7FE2B880F47
S1130FE0911D9695879597F9089597FB072E16F40A
S1130FF0009407D077FD09D00E94280807FC05D08B
S11310003EF4909581959F4F0895709561957F4F1B
S11310100895052E97FB1EF400940E94200857FDA6
S113102007D00E943C0807FC03D04EF40C9420081F
S113103050954095309521953F4F4F4F5F4F089500
S113104090958095709561957F4F8F4F9F4F089530
S1131050AA1BBB1B51E107C0AA1FBB1FA617B707DA
S113106010F0A61BB70B881F991F5A95A9F78095F6
S11310709095BC01CD010895A1E21A2EAA1BBB1BB9
S1131080FD010DC0AA1FBB1FEE1FFF1FA217B30750
S1131090E407F50720F0A21BB30BE40BF50B661F66
S11310A0771F881F991F1A9469F76095709580952A
S11310B090959B01AC01BD01CF010895CF93DF93BF
S11310C08230910510F482E090E0E0915102F091B9
S11310D0520220E030E0A0E0B0E0309739F14081E6
S11310E0518148175907B8F04817590771F482819C
S11310F09381109729F013969C938E9312972CC08A
S1131100909352028093510227C02115310531F08A
S11311104217530718F0A901DB0101C0EF019A013E
S1131120BD01DF010280F381E02DD7CF2115310508
S1131130F9F0281B390B2430310580F48A819B8116
S11311406115710521F0FB019383828304C09093A0
S1131150520280935102FE01329644C0FE01E20F16
S1131160F31F8193919322503109398328833AC024
S113117020914F0230915002232B41F4209102011F
S1131180309103013093500220934F0220910001CB
S1131190309101012115310541F42DB73EB740913D
S11311A0040150910501241B350BE0914F02F0918D
S11311B05002E217F307A0F42E1B3F0B2817390740
S11311C078F0AC014E5F5F4F2417350748F04E0F9F
S11311D05F1F5093500240934F028193919302C03A
S11311E0E0E0F0E0CF01DF91CF910895CF93DF935A
S11311F0009709F487C0FC01329713821282C091D0
S11312005102D0915202209781F420813181280F1C
S1131210391F80914F02909150028217930779F5FC
S1131220F0935002E0934F026DC0DE0120E030E005
S1131230AE17BF0750F412964D915C9113979D0120
S11312404115510509F1DA01F3CFB383A28340813B
S11312505181840F951F8A179B0771F48D919C917E
S11312601197840F951F02969183808312968D9116
S11312709C911397938382832115310529F4F0936C
S11312805202E09351023EC0D9011396FC93EE93AF
S113129012974D915D91A40FB51FEA17FB0779F4DE
S11312A080819181840F951F0296D90111969C9398
S11312B08E938281938113969C938E931297E0E090
S11312C0F0E08A819B81009719F0FE01EC01F9CFCF
S11312D0CE01029628813981820F931F20914F02FB
S11312E0309150022817390769F4309729F4109285
S11312F052021092510202C013821282D093500201
S1131300C0934F02DF91CF9108958F929F92AF9235
S1131310BF92CF92DF92EF92FF92CF93DF93EC01D3
S1131320688179818A819B816115710581059105A7
S113133021F464E279ED8BE597E02DE133EF41E0B0
S113134050E00E94090849015A019B01AC01A7EA37
S1131350B1E40E94DD0D6B017C01ACEEB4EFA5019C
S113136094010E94EB0DC60ED71EE81EF91EF7FE6F
S113137006C081E0C81AD108E10880E8F80AC882EA
S1131380D982EA82FB82C6019F77DF91CF91FF90D9
S1131390EF90DF90CF90BF90AF909F908F90089583
S11313A00E948509089586E091E00E9485090895C8
S11313B0A0E0B0E08093060190930701A093080198
S11313C0B09309010895A0E0B0E0E9EEF9E00C94CF
S11313D0F40DEC01CB01209719F40E945E08B8C00B
S11313E0FE01E60FF71F9E0122503109E217F307B1
S11313F008F4ACC0D9010D911C9111970617170779
S1131400B8F00530110508F49FC0A80144505109F3
S11314104617570708F498C002501109061B170B0A
S1131420019311936D937C93CF010E94F6088CC0B5
S11314305B01A01AB10A4E01800E911EA0915102C7
S1131440B0915202612C712C60E070E0109709F4A5
S113145049C0A815B905C9F5ED90FC90119767012D
S113146042E0C40ED11CCA14DB0478F147018A1887
S11314709B08640142E0C40ED11C1296BC901297E2
S11314801396AC91B5E0CB16D10440F0B282A3839D
S113149091828082D9018D939C9309C00E5F1F4F66
S11314A00E0D1F1DF90111830083EB2DFA2F611519
S11314B0710531F0DB011396FC93EE93129744C04F
S11314C0F0935202E09351023FC06D917C911197C9
S11314D06616770608F43B01BD0112960D90BC9187
S11314E0A02DB4CF60914F02709150026815790518
S11314F0E9F468167906D0F4409100015091010195
S11315004115510541F44DB75EB7609104017091E6
S11315100501461B570BE417F507C0F4F09350027E
S1131520E0934F02F901918380830EC00E945E080C
S11315307C01009759F0A801BE010E94AD0ACE01BA
S11315400E94F608C70104C0CE0102C080E090E00A
S1131550CDB7DEB7EEE00C94100EFB01DC0102C047
S113156001900D9241505040D8F708950F931F9366
S1131570CF93DF93EC018B01009731F46115710572
S113158019F480E090E038C06EE070E081E090E013
S11315900E94140DFC010097A1F380E883830115D8
S11315A0110571F01387028781E8838380915302C8
S11315B090915402892B21F4F0935402E093530246
S11315C02097C9F0D187C08783818260838380910B
S11315D0550290915602892B71F4F0935602E093D0
S11315E055028091570290915802892B21F4F0936F
S11315F05802E0935702CF01DF91CF911F910F91D1
S11316000895A0E0B0E0E7E0FBE00C94000EFE01DA
S1131610359661917191AF01809155029091560276
S11316200E94420BE2E00C941C0E0F931F93CF9385
S1131630DF93E0915502F0915602238121FF1BC0F4
S1131640EC0100E010E0899160915502709156021E
S1131650DB011896ED91FC911997882331F00995D7
S1131660892B89F30FEF1FEFEECF8AE00995892BC1
S113167011F4C80102C08FEF9FEFDF91CF911F914A
S11316800F910895ACE0B0E0E8E4FBE00C94F00DB9
S11316907C016B018A01FC0117821682838181FF20
S11316A0BDC1CE0101964C01F7019381F60193FD72
S11316B0859193FF81916F01882309F4ABC1853231
S11316C039F493FD859193FF81916F01853229F45B
S11316D0B70190E00E944D0DE7CF512C312C20E052
S11316E02032A0F48B3269F030F4803259F0833226
S11316F069F420612CC08D3239F0803339F42160D3
S113170026C02260246023C0286021C027FD27C092
S113171030ED380F3A3078F426FF06C0FAE05F9EC9
S1131720300D1124532E13C08AE0389E300D11243D
S1131730332E20620CC08E3221F426FD6BC120644E
S113174006C08C3611F4206802C0883641F4F601D4
S113175093FD859193FF81916F018111C1CF982FE2
S11317609F7D9554933028F40C5F1F4FFFE3F9835A
S11317700DC0833631F0833771F0833509F05BC0D7
S113178022C0F801808189830E5F1F4F4424439453
S1131790512C540115C03801F2E06F0E711CF80190
S11317A0A080B18026FF03C0652D70E002C06FEFFA
S11317B07FEFC5012C870E94420D2C0183012C85EB
S11317C02F77222E17C03801F2E06F0E711CF8013A
S11317D0A080B18026FF03C0652D70E002C06FEFCA
S11317E07FEFC5012C870E94300D2C012C852068C9
S11317F0222E830123FC1BC0832D90E0481659063A
S1131800B0F4B70180E290E00E944D0D3A94F4CF19
S1131810F50127FC859127FE81915F01B70190E0D6
S11318200E944D0D31103A94F1E04F1A51084114C1
S1131830510471F7E5C0843611F0893639F5F801A1
S113184027FF07C060817181828193810C5F1F4FE4
S113185008C060817181882777FD8095982F0E5F7D
S11318601F4F2F76B22E97FF09C0909580957095E3
S113187061957F4F8F4F9F4F2068B22E2AE030E052
S1131880A4010E947F0DA82EA81844C0853729F40E
S11318902F7EB22E2AE030E025C0F22FF97FBF2E32
S11318A08F36C1F018F4883579F0B4C0803719F058
S11318B0883721F0AFC02F2F2061B22EB4FE0DC0A7
S11318C08B2D8460B82E09C024FF0AC09F2F966018
S11318D0B92E06C028E030E005C020E130E002C0A7
S11318E020E132E0F801B7FE07C060817181828196
S11318F093810C5F1F4F06C06081718180E090E08E
S11319000E5F1F4FA4010E947F0DA82EA818FB2D67
S1131910FF77BF2EB6FE0BC02B2D2E7FA51450F4DF
S1131920B4FE0AC0B2FC08C02B2D2E7E05C07A2C52
S11319302B2D03C07A2C01C0752C24FF0DC0FE0191
S1131940EA0DF11D8081803311F4297E09C022FF44
S113195006C07394739404C0822F867809F073943C
S113196023FD13C020FF06C05A2C731418F4530C23
S11319705718732C731468F4B70180E290E02C8735
S11319800E944D0D73942C85F5CF731410F4371801
S113199001C0312C24FF12C0B70180E390E02C87F2
S11319A00E944D0D2C8522FF17C021FF03C088E53E
S11319B090E002C088E790E0B7010CC0822F8678DF
S11319C059F021FD02C080E201C08BE227FD8DE2C7
S11319D0B70190E00E944D0DA51438F4B70180E3DF
S11319E090E00E944D0D5A94F7CFAA94F401EA0DA9
S11319F0F11D8081B70190E00E944D0DA110F5CF3B
S1131A00332009F451CEB70180E290E00E944D0DDD
S1131A103A94F6CFF7018681978102C08FEF9FEF4A
S1131A202C96E2E10C940C0E0F931F93CF93DF934B
S1131A30869F8001879F100D969F100D1124C80169
S1131A400E945E08EC01009729F0A80160E070E0B4
S1131A500E943B0DCE01DF91CF911F910F9108950C
S1131A60FC010590615070400110D8F78095909565
S1131A708E0F9F1F0895DC0101C06D9341505040AB
S1131A80E0F70895FC016150704001900110D8F70F
S1131A90809590958E0F9F1F08950F931F93CF935A
S1131AA0DF93182F092FEB018B8181FD03C08FEF8A
S1131AB09FEF20C082FF10C04E815F812C813D8149
S1131AC0421753077CF4E881F9819F012F5F3F4F50
S1131AD039832883108306C0E885F985812F099509
S1131AE0892B29F72E813F812F5F3F4F3F832E8320
S1131AF0812F902FDF91CF911F910F910895FA01BB
S1131B00AA27283051F1203181F1E8946F936E7F38
S1131B106E5F7F4F8F4F9F4FAF4FB1E03ED0B4E029
S1131B203CD0670F781F891F9A1FA11D680F791F6A
S1131B308A1F911DA11D6A0F711D811D911DA11D7B
S1131B4020D009F468943F912AE0269F112430198B
S1131B50305D3193DEF6CF010895462F4770405D26
S1131B604193B3E00FD0C9F7F6CF462F4F70405DD5
S1131B704A3318F0495D31FD4052419302D0A9F730
S1131B80EACFB4E0A6959795879577956795BA952A
S1131B90C9F700976105710508959B01AC010A2EF0
S1131BA006945795479537952795BA95C9F7620FC7
S1131BB0731F841F951FA01D08950E94270EA59FC3
S1131BC0900DB49F900DA49F800D911D1124089534
S1131BD0B7FF0C94DD0D0E94DD0D821B930B08955D
S1131BE02F923F924F925F926F927F928F929F9229
S1131BF0AF92BF92CF92DF92EF92FF920F931F9317
S1131C00CF93DF93CDB7DEB7CA1BDB0B0FB6F894C7
S1131C10DEBF0FBECDBF09942A88398848885F8407
S1131C206E847D848C849B84AA84B984C884DF8078
S1131C30EE80FD800C811B81AA81B981CE0FD11D5C
S1131C400FB6F894DEBF0FBECDBFED010895A29F7D
S1131C50B001B39FC001A39F700D811D1124911D7C
S1131C60B29F700D811D1124911D0895F894FFCF2A
S1131C70000059022000010000004D41494E204D52
S1131C80454E5500736E65616B796769726C7300BC
S1131C904A756C696500416E64726561004A6F68DB
S1131CA0616E6E65203C3300536E696B00446F6E49
S1131CB06520636C656172696E670D0052756E20F4
S1131CC05352414D5F746573740053746172746947
S1131CD06E67205352414D20746573742E2E2E006E
S1131CE05772697465207068617365206572726FDC
S1131CF0723A206578745F72616D5B2534645D208F
S1131D003D2025303258202873686F756C6420623A
S1131D10652025303258290A005265747269657647
S1131D20616C207068617365206572726F723A200D
S1131D306578745F72616D5B2534645D203D202598
S1131D40303258202873686F756C642062652025D2
S1131D50303258290A005352414D2074657374205F
S1131D60636F6D706C657465642077697468200AAC
S1131D70253464206572726F727320696E207772E5
S1131D8069746520706861736520616E64200A253A
S1131D903464206572726F727320696E2072657488
S1131DA072696576616C2070686173650A0A000067
S9030000FC
